:020000040800F2
:1000000000000320B9490008613100086F31000881
:10001000773100087F3100088731000800000000B8
:100020000000000000000000000000008F31000808
:100030009D31000800000000AB310008B931000814
:100040000D4A00080D4A00080D4A0008C531000895
:100050000D4A00080D4A00085332000861320008BA
:100060000D4A00080D4A0008453200080D4A0008F4
:100070000D4A00080D4A0008D13100080D4A000859
:100080000D4A00080D4A00080D4A00080D4A0008F4
:100090000D4A00080D4A00080D4A00080D4A0008E4
:1000A0000D4A00080D4A00080D4A00080D4A0008D4
:1000B0000D4A00080D4A00080D4A00080D4A0008C4
:1000C0000D4A00080D4A00080D4A00080D4A0008B4
:1000D000E5310008F93100080D4A00080D4A000812
:1000E0000D4A00080D4A00080D4A00080D4A000894
:1000F0000D32000819320008253200080D4A0008A8
:100100000D4A00080D4A00080D4A00080D4A000873
:100110000D4A00080D4A00080D4A00080D4A000863
:100120000D4A00080D4A0008313200080D4A000847
:0C0130000D4A00080D4A00080D4A0008A6
:1001400010B5054C237833B9044B13B10448AFF311
:1001500000800123237010BD500200200000000029
:10016000C001010808B5034B1BB103490348AFF3B5
:10017000008008BD0000000054020020C0010108FA
:1001800010F8012B11F8013B012A28BF9A42F7D041
:10019000D01A7047000000000000000000000000BE
:1001A00001F0FF01102A2BDB10F0070F08D010F828
:1001B000013B013A8B422DD010F0070F42B3F6D12C
:1001C000F0B441EA012141EA014122F007047FF045
:1001D00000070023F0E80256083C85EA010586EA9C
:1001E000010685FA47F5A3FA87F586FA47F6A5FAD8
:1001F00087F68EB9EED1F0BC01F0FF0102F00702E4
:1002000032B110F8013B013A83EA010313B1F8D18E
:100210000020704701387047002D06BF354603386F
:10022000073815F0010F07D1013015F4807F02BFA8
:10023000013015F4C03F0130F0BC0138704700BFF9
:10024000034613F8012B002AFBD1181A0138704716
:1002500081F0004102E000BF83F0004330B54FEA77
:1002600041044FEA430594EA050F08BF90EA020FE4
:100270001FBF54EA000C55EA020C7FEA645C7FEA77
:10028000655C00F0E2804FEA5454D4EB5555B8BF9A
:100290006D420CDD2C4480EA020281EA030382EA0B
:1002A000000083EA010180EA020281EA0303362D9D
:1002B00088BF30BD11F0004F4FEA01314FF4801C70
:1002C0004CEA113102D0404261EB410113F0004F82
:1002D0004FEA03334CEA133302D0524263EB430339
:1002E00094EA050F00F0A780A4F10104D5F1200ED7
:1002F0000DDB02FA0EFC22FA05F2801841F1000132
:1003000003FA0EF2801843FA05F359410EE0A5F105
:1003100020050EF1200E012A03FA0EFC28BF4CF036
:10032000020C43FA05F3C01851EBE37101F00045EC
:1003300007D54FF0000EDCF1000C7EEB00006EEBF9
:100340000101B1F5801F1BD3B1F5001F0CD3490883
:100350005FEA30004FEA3C0C04F101044FEA4452DA
:1003600012F5800F80F09A80BCF1004F08BF5FEA61
:10037000500C50F1000041EB045141EA050130BD41
:100380005FEA4C0C404141EB0101013C28BFB1F553
:10039000801FE9D291F0000F04BF01460020B1FA9E
:1003A00081F308BF2033A3F10B03B3F120020CDA71
:1003B0000C3208DD02F1140CC2F10C0201FA0CF04F
:1003C00021FA02F10CE002F11402D8BFC2F1200CB4
:1003D00001FA02F120FA0CFCDCBF41EA0C0190406A
:1003E000E41AA2BF01EB0451294330BD6FEA0404B3
:1003F0001F3C1CDA0C340EDC04F11404C4F120029E
:1004000020FA04F001FA02F340EA030021FA04F3AF
:1004100045EA030130BDC4F10C04C4F1200220FA06
:1004200002F001FA04F340EA0300294630BD21FA44
:1004300004F0294630BD94F0000F83F4801306BF0A
:1004400081F480110134013D4EE77FEA645C18BFFE
:100450007FEA655C29D094EA050F08BF90EA020F95
:1004600005D054EA000C04BF1946104630BD91EA8D
:10047000030F1EBF0021002030BD5FEA545C05D190
:100480004000494128BF41F0004130BD14F58004CF
:100490003CBF01F5801130BD01F0004545F0FE4143
:1004A00041F470014FF0000030BD7FEA645C1ABF78
:1004B000194610467FEA655C1CBF0B46024650EAAF
:1004C000013406BF52EA033591EA030F41F40021DB
:1004D00030BD00BF90F0000F04BF0021704730B561
:1004E0004FF4806404F132044FF000054FF0000136
:1004F00050E700BF90F0000F04BF0021704730B5F7
:100500004FF4806404F1320410F0004548BF4042CB
:100510004FF000013EE700BF42004FEAE2014FEA20
:1005200031014FEA02701FBF12F07F4393F07F4FFB
:1005300081F06051704732F07F4208BF704793F0FE
:100540007F4F04BF41F40021704730B54FF4607411
:1005500001F0004521F000411CE700BF50EA010214
:1005600008BF704730B54FF000050AE050EA0102BD
:1005700008BF704730B511F0004502D5404261EB2D
:1005800041014FF4806404F132045FEA915C3FF46E
:10059000D8AE4FF003025FEADC0C18BF03325FEA0B
:1005A000DC0C18BF033202EBDC02C2F1200300FABC
:1005B00003FC20FA02F001FA03FE40EA0E0021FAE1
:1005C00002F11444BDE600BF70B54FF0FF0C4CF4CF
:1005D000E06C1CEA11541DBF1CEA135594EA0C0F81
:1005E00095EA0C0F00F0DEF82C4481EA030621EABC
:1005F0004C5123EA4C5350EA013518BF52EA0335F7
:1006000041F4801143F4801338D0A0FB02CE4FF0A8
:100610000005E1FB02E506F00042E0FB03E54FF0D8
:100620000006E1FB03569CF0000F18BF4EF0010ED0
:10063000A4F1FF04B6F5007F64F5407404D25FEACC
:100640004E0E6D4146EB060642EAC62141EA55517F
:100650004FEAC52040EA5E504FEACE2EB4F1FD0CC1
:1006600088BFBCF5E06F1ED8BEF1004F08BF5FEA3F
:10067000500E50F1000041EB045170BD06F00046F1
:1006800046EA010140EA020081EA0301B4EB5C049E
:10069000C2BFD4EB0C0541EA045170BD41F4801196
:1006A0004FF0000E013C00F3AB8014F1360FDEBFBB
:1006B000002001F0004170BDC4F10004203C35DA97
:1006C0000C341BDC04F11404C4F1200500FA05F31A
:1006D00020FA04F001FA05F240EA020001F00042BB
:1006E00021F0004110EBD37021FA04F642EB060131
:1006F0005EEA430E08BF20EAD37070BDC4F10C045B
:10070000C4F1200500FA04F320FA05F001FA04F21E
:1007100040EA020001F0004110EBD37041F100010A
:100720005EEA430E08BF20EAD37070BDC4F1200515
:1007300000FA05F24EEA020E20FA04F301FA05F27D
:1007400043EA020321FA04F001F0004121FA04F225
:1007500020EA020000EBD3705EEA430E08BF20EAF5
:10076000D37070BD94F0000F0FD101F0004640002F
:1007700041EB010111F4801F08BF013CF7D041EAB1
:10078000060195F0000F18BF704703F000465200B5
:1007900043EB030313F4801F08BF013DF7D043EA86
:1007A0000603704794EA0C0F0CEA135518BF95EA3C
:1007B0000C0F0CD050EA410618BF52EA4306D1D1C3
:1007C00081EA030101F000414FF0000070BD50EAE2
:1007D000410606BF1046194652EA430619D094EA6C
:1007E0000C0F02D150EA013613D195EA0C0F05D156
:1007F00052EA03361CBF104619460AD181EA0301AA
:1008000001F0004141F0FE4141F470014FF0000061
:1008100070BD41F0FE4141F4780170BD70B54FF0FC
:10082000FF0C4CF4E06C1CEA11541DBF1CEA13557C
:1008300094EA0C0F95EA0C0F00F0A7F8A4EB05045E
:1008400081EA030E52EA03354FEA013100F0888055
:100850004FEA03334FF0805545EA131343EA12631E
:100860004FEA022245EA111545EA10654FEA0026D3
:100870000EF000419D4208BF964244F1FD0404F58C
:10088000407402D25B084FEA3202B61A65EB0305E8
:100890005B084FEA32024FF480104FF4002CB6EBA5
:1008A000020E75EB030E22BFB61A754640EA0C0025
:1008B0005B084FEA3202B6EB020E75EB030E22BF65
:1008C000B61A754640EA5C005B084FEA3202B6EBA6
:1008D000020E75EB030E22BFB61A754640EA9C0065
:1008E0005B084FEA3202B6EB020E75EB030E22BF35
:1008F000B61A754640EADC0055EA060E18D04FEAF3
:10090000051545EA16754FEA06164FEAC30343EA92
:1009100052734FEAC2025FEA1C1CC0D111F4801F5F
:100920000BD141EA00014FF000004FF0004CB6E758
:1009300011F4801F04BF01430020B4F1FD0C88BFF7
:10094000BCF5E06F3FF6AFAEB5EB030C04BFB6EB02
:10095000020C5FEA500C50F1000041EB045170BDF5
:100960000EF0004E4EEA113114EB5C04C2BFD4EB22
:100970000C0541EA045170BD41F480114FF0000EA6
:10098000013C90E645EA060E8DE60CEA135594EA22
:100990000C0F08BF95EA0C0F3FF43BAF94EA0C0F25
:1009A0000AD150EA01347FF434AF95EA0C0F7FF49A
:1009B00025AF104619462CE795EA0C0F06D152EAEE
:1009C00003353FF4FDAE1046194622E750EA4106D2
:1009D00018BF52EA43067FF4C5AE50EA41047FF4E3
:1009E0000DAF52EA43057FF4EBAE12E74FF0FF3C48
:1009F00006E000BF4FF0010C02E000BF4FF0010C19
:100A00004DF804CD4FEA410C7FEA6C5C4FEA430C91
:100A100018BF7FEA6C5C1BD001B050EA410C0CBFE0
:100A200052EA430C91EA030F02BF90EA020F002042
:100A3000704710F1000F91EA030F58BF994208BFA9
:100A400090422CBFD8176FEAE37040F00100704766
:100A50004FEA410C7FEA6C5C02D150EA013C07D1BD
:100A60004FEA430C7FEA6C5CD6D152EA033CD3D008
:100A70005DF8040B704700BF8446104662468C4602
:100A80001946634600E000BF01B5FFF7B7FF002835
:100A900048BF10F1000F01BD4DF808EDFFF7F4FF5E
:100AA0000CBF012000205DF808FB00BF4DF808EDE9
:100AB000FFF7EAFF34BF012000205DF808FB00BF0C
:100AC0004DF808EDFFF7E0FF94BF012000205DF82E
:100AD00008FB00BF4DF808EDFFF7CEFF94BF0120E3
:100AE00000205DF808FB00BF4DF808EDFFF7C4FFDC
:100AF00034BF012000205DF808FB00BF4FEA410C25
:100B00007FEA6C5C02D150EA013C0AD14FEA430C07
:100B10007FEA6C5C02D152EA033C02D14FF0000044
:100B200070474FF0010070474FEA410212F5001282
:100B300015D211D56FF47873B3EB625212D94FEA24
:100B4000C12343F0004343EA505311F0004F23FA0E
:100B500002F018BF404270474FF00000704750EA63
:100B6000013005D111F0004008BF6FF00040704720
:100B70004FF00000704700BF53B94AB9002908BFC1
:100B800000281CBF4FF0FF314FF0FF3000F088B954
:100B9000ADF1080C6DE904CE00F006F8DDF804E0D4
:100BA000DDE9022304B070472DE9F047089D8E4629
:100BB00004468846002B4AD18A42174662D9B2FAC7
:100BC00082F64EB1C6F1200301FA06F820FA03F3CB
:100BD000B74043EA0808B4404FEA174E1FFA87FCB3
:100BE000B8FBFEF1230C0EFB118843EA084301FB1E
:100BF0000CF29A4209D9FB1801F1FF3080F0EA802B
:100C00009A4240F2E78002393B449A1AA3B2B2FBFF
:100C1000FEF00EFB102243EA024300FB0CFC9C4555
:100C200009D9FB1800F1FF3280F0D6809C4540F2D4
:100C3000D3803B44023840EA0140A3EB0C0300217F
:100C40001DB1F3400022C5E90032BDE8F0878B42B8
:100C500005D90DB1C5E9000100210846F5E7B3FA51
:100C600083F1002946D1734502D3824200F2058107
:100C7000841A6EEB030201209046002DE5D0C5E9F1
:100C80000048E2E7002A00F09080B2FA82F6002ED7
:100C900040F0A4808A1A030C4FEA174E80B2BCB20F
:100CA0000121B2FBFEFC0EFB1C2243EA024304FBC3
:100CB0000CF29A4207D9FB180CF1FF3802D29A4283
:100CC00000F2E080C4469B1AB3FBFEF20EFB123327
:100CD00040EA034302FB04F49C4207D9FB1802F1EB
:100CE000FF3002D29C4200F2CA8002461B1B42EA3D
:100CF0000C40A5E7C1F120068B4022FA06F71F43FE
:100D00000EFA01F420FA06F32EFA06FE4FEA17490E
:100D1000234300FA01F81FFA87FCBEFBF9F01C0C14
:100D200009FB10EE44EA0E4400FB0CFEA64502FA55
:100D300001F209D93C1900F1FF3A80F09C80A645E8
:100D400040F2998002383C44A4EB0E041FFA83FE63
:100D5000B4FBF9F309FB13444EEA044403FB0CFC17
:100D6000A44508D93C1903F1FF3E80F08280A445D8
:100D70007FD9023B3C4443EA0040A4EB0C04A0FBB7
:100D800002EC64457346E14662D35FD05DB1B8EBD7
:100D9000030264EB090404FA06F622FA01F31E4387
:100DA000CC40C5E9006400214FE7B1FBF2FC010C27
:100DB00041EA0E4180B240EA01423B4638463C4699
:100DC000B846BE462026B1FBF7F1A2EB080241EA85
:100DD0000C4166E7014618E710462CE7C6F12002F1
:100DE0002EFA02F3B740B14020FA02F24FEA174E52
:100DF0000A43B3FBFEF8BCB20EFB1833110C41EAF8
:100E0000034108FB04F9B04089454FEA104380B222
:100E10003ED9791808F1FF3C01D289451FD8A1EBD2
:100E20000901B1FBFEF909FB04F80EFB191192B29E
:100E300042EA0142424529D2BA1809F1FF31C4D22F
:100E40004245C2D2A9F102013A44BEE7F0459DD223
:100E5000BEEB02036CEB070C0138E14696E7A7EB0B
:100E600009094944A8F1020CB1FBFEF909FB04F899
:100E7000DBE773467FE7504666E70846FDE63B44FE
:100E8000023A33E7ACF1020C3B441CE749469CE7CD
:100E9000A1EB0901C446B1FBFEF909FB04F8C4E764
:100EA000704700BF80B483B000AF7860064BD3F8C2
:100EB000902005497B681343C1F8903000BF0C3780
:100EC000BD465DF8047B70470008005880B485B0CB
:100ED00000AF78604FF0B043DA6C4FF0B0417B6800
:100EE0001343CB644FF0B043DA6C7B681340FB6074
:100EF000FB6800BF1437BD465DF8047B704780B4C3
:100F000085B000AF78604FF0B043D3F84C214FF07C
:100F1000B0417B681343C1F84C314FF0B043D3F874
:100F20004C217B681340FB60FB6800BF1437BD4653
:100F30005DF8047B704780B500AF03F067FF03F0F6
:100F40006BFF4FF48030FFF7ADFF0AF019FB00F0A4
:100F500021F800F0C1F800BF80BD0000B0B588B036
:100F600000AF0B4B3C1D1D460FCD0FC495E807008D
:100F700003C422800234130C23700CF051F83B1D83
:100F800018460AF0A2FE00BF2037BD46B0BD00BF24
:100F9000D801010880B588B000AF3B1D00221A605F
:100FA0005A609A60DA601A610023BB8300237B8356
:100FB00000233B830023FB7736E0FB7F434ADB00C3
:100FC00013449B79002B2CD0FB7F404A52F83330DE
:100FD0003F4A93421BD03E4A934221D8B3F1904FEF
:100FE00003D03C4A934209D01AE0FB7F374ADB002A
:100FF00013449A88BB8B1343BB8312E0FB7F334AB5
:10100000DB0013449A887B8B13437B8309E0FB7FCF
:101010002E4ADB0013449A883B8B13433B8300E04A
:1010200000BFFB7F0133FB77FB7F252BC5D9002356
:10103000FB600123BB6003233B61BB8B002B14D0FF
:10104000BB8B7B600120FFF741FF0120FFF757FFBB
:101050003B1D19464FF0904004F012FCBB8B002260
:1010600019464FF0904004F07BFD7B8B002B12D093
:101070007B8B7B600220FFF729FF0220FFF73FFFF9
:101080003B1D1946134804F0FBFB7B8B00221946DD
:10109000104804F065FD3B8B002B13D03B8B7B602D
:1010A0000420FFF713FF0420FFF729FF3B1D19461B
:1010B000074804F0E5FB3B8B00221946044804F086
:1010C0004FFD00BF00BF2037BD4680BD5016010850
:1010D000000800480004004880B400AF00BFBD46CF
:1010E0005DF8047B704780B500AF01F02FFD00BFB5
:1010F00080BD80B584B000AFF8600B467A607B811C
:101100007A897B68F968002001F070FB00BF103716
:10111000BD4680BD80B483B000AF7860074BD3F884
:10112000803023F0070205497B681343C1F8803003
:1011300000BF0C37BD465DF8047B704700040058C3
:1011400080B483B000AF7860064BD3F89020054997
:101150007B681343C1F8903000BF0C37BD465DF883
:10116000047B70470008005880B483B000AF7860FB
:101170004FF0B0430A4AC3F89C204FF0B043D3F875
:101180009C3023F47C527B681B024FF0B041134328
:10119000C1F89C3000BF0C37BD465DF8047B70473A
:1011A000FECAFECA80B483B000AF78604FF0B0438F
:1011B0009B6823F400424FF0B0417B6813438B607F
:1011C00000BF0C37BD465DF8047B704780B400AFAC
:1011D0004FF0B043D3F890304FF0B04243F4803337
:1011E000C2F8903000BFBD465DF8047B704780B404
:1011F00000AF4FF0B043D3F890304FF0B04223F43B
:101200008033C2F8903000BFBD465DF8047B704764
:1012100080B400AF4FF0B043D3F8943003F0806354
:10122000B3F1806F01D1012300E000231846BD46D1
:101230005DF8047B704780B400AF4FF0B043D3F843
:10124000943003F08053B3F1805F01D1012300E0BB
:1012500000231846BD465DF8047B704780B485B016
:1012600000AF78604FF0B0431A6D4FF0B0417B682B
:1012700013430B654FF0B0431A6D7B681340FB605E
:10128000FB6800BF1437BD465DF8047B7047000063
:1012900080B400AF044B1B68C3F30B031846BD4674
:1012A0005DF8047B704700BF002004E080B400AF0D
:1012B000044B1B681B0C9BB21846BD465DF8047BB3
:1012C000704700BF002004E080B483B000AF7860B6
:1012D00039607B685A683B681B041A437B685A6014
:1012E00000BF0C37BD465DF8047B704780B483B007
:1012F00000AF786039607B685A683B681A437B6846
:101300005A6000BF0C37BD465DF8047B704780B45F
:1013100083B000AF786039607B685A693B681B0412
:101320001A437B685A6100BF0C37BD465DF8047BE9
:10133000704780B483B000AF786039607B685A69C9
:101340003B681A437B685A6100BF0C37BD465DF8A5
:10135000047B704780B483B000AF786039607B68ED
:101360003A689A6000BF0C37BD465DF8047B704751
:1013700080B483B000AF786039607B683A689A6166
:1013800000BF0C37BD465DF8047B704780B400AFEA
:10139000054B1B69044A23F00403136100BFBD46DB
:1013A0005DF8047B704700BF00ED00E080B483B0BF
:1013B00000AF78607B68FF225A6200BF0C37BD46E1
:1013C0005DF8047B704780B483B000AF78607B68C1
:1013D000CA225A627B6853225A6200BF0C37BD464C
:1013E0005DF8047B704780B483B000AF78603960EB
:1013F0007B689B6823F007023B681A437B689A600E
:1014000000BF0C37BD465DF8047B704780B500AF68
:10141000044B4FF400421A6100F030F800F070F80D
:1014200000BF80BD0040005880B500AF00F07CF8E0
:1014300000F094F80949002000F032FFFFF77BFD2F
:10144000012101200BF092FE00F0EAF900F0F8F91A
:1014500000F07AFA00F090F800BF80BD6806002026
:1014600080B400AF00BFBD465DF8047B704780B517
:1014700000AF5020FFF764FE00BF80BD80B500AF15
:1014800000F004F800F01AF800BF80BD80B500AF8E
:10149000FFF7BEFE0346002B0DD0FFF7CCFE034640
:1014A000002B08D104F036FC04F034FCFFF78EFE6C
:1014B000FFF79DFE00BF00BF80BD000080B500AFFC
:1014C0004FF48010FFF7CAFE3F210C48FFF742FFA0
:1014D0003F210A48FFF74CFF3F210848FFF7F4FE81
:1014E0003F210648FFF713FF3F210448FFF7FEFEA8
:1014F0003F210248FFF71DFF00BF80BD000C0058D0
:1015000080B582B000AF00200AF074FA78607B6882
:10151000002B05D07B689B791846FFF725FE00BF9E
:1015200000BF0837BD4680BD80B500AFFFF798FF0C
:10153000FFF79DFF00F002F800BF80BD80B500AF4F
:101540000548FFF740FF00210348FFF74CFF024822
:10155000FFF72CFF00BF80BD0028004080B500AF22
:101560004FF40040FFF71EFE0BF0EEFD0420FFF7E6
:10157000D1FD00BF80BD000080B588B000AF0BF08A
:1015800095FB114A002140200BF0A2FF0F4B3B605E
:101590000F4B7B603B4619460E480AF071FC0E4B20
:1015A000BB600E4BFB600E4B3B6140F23C537B61DA
:1015B00007F1080318460BF0BFFC0BF071FB00BFEE
:1015C0002037BD4680BD00BFB9BE000834070320E8
:1015D000E5150008FD1500084C090320400803200C
:1015E000F801032080B483B000AF0346FB7100BF55
:1015F0000C37BD465DF8047B7047000080B588B0AD
:1016000000AF78607B685B680B33FB61FB691B880C
:101610009BB2A3F51243072B60D801A252F823F026
:10162000411600088316000891160008DD16000810
:10163000AD160008BD160008C5160008D51600082E
:1016400007F10C0318460AF06DFB3B7B19467B7BC8
:101650001A46BB7B24480CF09DFD3B7C1946234871
:101660000CF098FDBB7D1946FB7D1A463B7E204859
:101670000CF090FD1F480CF08DFD786800F070F8BC
:101680002DE01D480CF086FD786800F043F826E058
:101690001A480CF0EFFDFB6902331968FB6902334D
:1016A0005B681A4616480CF075FD18E0FB690233BA
:1016B0001B68194613480CF06DFD10E012480CF041
:1016C00069FD0CE0FB6902331B6819460F480CF0FA
:1016D00061FD04E00E480CF05DFD00E000BF00BFBE
:1016E0002037BD4680BD00BFF40101081802010883
:1016F000340201084C0201086C0201089002010842
:10170000E002010808030108440301086803010816
:10171000A403010880B584B000AF78607B685B6883
:101720000B33FB60FB680233BB60BB681B78194658
:1017300008480CF02FFDBB681B78002B03D106482E
:101740000CF098FD03E005480CF094FD00BF103745
:10175000BD4680BDC8030108F80301083404010830
:1017600080B58AB000AF786007F1080300221A60E4
:101770005A609A60DA6000237B6200233B627B68D8
:101780005B680B33FB61FB690233BB61BB691B7890
:10179000002B28D11D480CF06DFDFFF7DFFB0F2358
:1017A0003B727F23BB72FFF781FD7862796A18482C
:1017B0000CF0F0FC7B6A9BB2BB82FFF769FD3862DC
:1017C000396A14480CF0E6FC3B6A9BB2FB8207F1D5
:1017D000080318460AF090FA01F018FE00210120D3
:1017E0000BF0C4FC0EE0BB691B78012B06D10A4844
:1017F0000CF0D0FC7B6800221A7003E007480CF064
:10180000C9FC00BF2837BD4680BD00BF6C0401087D
:1018100088040108AC040108CC0401080005010893
:1018200080B500AF002003F00BF9012003F008F9A8
:10183000022003F005F9012003F03CF900BF80BD50
:1018400080B500AF0121002003F068F901210120DB
:1018500003F064F90121022003F060F900BF80BDAC
:1018600080B584B000AF786003F0ACFAB8607B68F4
:10187000FB60FB68B3F1FF3F0AD003F0BBFA0346FD
:101880001A46FB681344FB6002E0FFF77FFD30BFA0
:1018900003F098FA0246BB68D31AFA689A42F4D861
:1018A00000BF00BF1037BD4680BD80B500AF4FF010
:1018B000FF300BF08BFC00BF80BD80B400AF00BFD9
:1018C000BD465DF8047B704780B582B000AF78609C
:1018D000002140200BF01EFE00BF0837BD4680BD32
:1018E00080B582B000AF786002200BF07FFE00BFB1
:1018F0000837BD4680BD80B582B000AF7860022059
:101900000BF094FE00BF0837BD4680BD80B582B0A5
:1019100000AF0346FB80FB88102B06D0102B0DDC9C
:10192000012B05D0022B06D008E002F0AFF806E04C
:1019300002F0B2F803E002F0B7F800E000BF00BF29
:101940000837BD4680BD000080B500AF034B0122C3
:101950000349002000F010FF00BF80BD651900089A
:101960007402002080B500AF154B1B88FF2B1ED8DA
:10197000144B1B780D2B0FD1134914480CF00AFCA3
:1019800000F028F80E4B00221A804FF480720021DC
:101990000D480CF04FFD0AE0094B1B885A1C91B210
:1019A000074A11801A46074B1978074B9954084B80
:1019B00001220449002000F0DFFE00BF80BD00BF0F
:1019C0007C030020740200207C0200203405010802
:1019D0006519000880B500AF1C491D48FEF7D0FB13
:1019E0000346002B09D11B480CF044FC1A4B1B4A40
:1019F0001A60194803F022FF26E019491448FEF73F
:101A0000BFFB0346002B0AD116480CF033FC124BE7
:101A10004FF0B0521A60104803F010FF14E0124962
:101A20000B48FEF7ADFB0346002B09D10F480CF025
:101A300021FC094B0E4A1A60074803F0FFFE03E041
:101A400003490C480CF0A6FB00BF80BD440501080B
:101A50007C020020480501086C02002004000016EA
:101A600050050108540501085C05010860050108DE
:101A7000010000166805010880B483B000AF7860EB
:101A8000064BD3F8802005497B681343C1F88030AA
:101A900000BF0C37BD465DF8047B70470008005856
:101AA00080B483B000AF7860054B1A6804497B6846
:101AB00013430B6000BF0C37BD465DF8047B7047D5
:101AC0000008005880B483B000AF0D4B9B6A9BB2F6
:101AD0007B600B4B9B6A9BB23B6005E03B687B6085
:101AE000074B9B6A9BB23B607A683B689A42F5D190
:101AF0003B6818460C37BD465DF8047B704700BF55
:101B00000028004080B485B000AF03460A46FB7150
:101B10001346BB71BA791D4913465B001344DB00C1
:101B20000B4415331B78FB73FB7B062B09D0FA7B28
:101B3000164913465B001344DB000B441433FA7957
:101B40001A70FA79114913465B001344DB000B4409
:101B50001533FA7B1A70FA790C4913465B0013446B
:101B6000DB000B441433BA791A70BA79074913466B
:101B70005B001344DB000B441533FA791A7000BF85
:101B80001437BD465DF8047B704700BF800300201A
:101B900080B485B000AF03460A46FB711346BB71A3
:101BA000294B1B78DBB2BA799A4232D0BA792749ED
:101BB00013465B001344DB000B4414331B78FB73A8
:101BC000FA7B224913465B001344DB000B441533B8
:101BD000FA791A70FA791D4913465B001344DB0049
:101BE0000B441533BA791A70FA79184913465B0019
:101BF0001344DB000B441433FA7B1A70BA7913498F
:101C000013465B001344DB000B441433FA791A705B
:101C100014E0FA790D4913465B001344DB000B44D2
:101C20001533BA791A70BA79084913465B00134420
:101C3000DB000B441433FA791A7000BF1437BD4629
:101C40005DF8047B704700BF100400208003002073
:101C500080B584B000AF0346FB714E4B1B78DBB2FE
:101C6000062B18D14B4B1B78DAB24B4B1A70494AF2
:101C7000FB791370FA79494913465B001344DB0082
:101C80000B44153306221A70454B4FF0FF321A6091
:101C90000023FB8178E000F009F90346FB81FA7923
:101CA0003E4913465B001344DB000B4408331968BC
:101CB000FB89FA791944394813465B001344DB0069
:101CC000034408331960FA79344913465B0013441E
:101CD000DB000B4408331B68BB602E4B1B78DBB268
:101CE00019462E4A0B465B000B44DB0013440833B5
:101CF0001B68BA689A4237D3264B1B787B737A7B72
:101D0000264913465B001344DB000B4415331B7854
:101D10003B7313E07A7B214913465B001344DB00DD
:101D20000B4415331B787B737A7B1C4913465B008D
:101D30001344DB000B4415331B783B733B7B062BB2
:101D40000BD03A7B154913465B001344DB000B4470
:101D500008331B68BA689A42DCD27A7BFB79114659
:101D60001846FFF7CFFE0FE00A4B1B78DAB2FB797B
:101D700011461846FFF70CFF064B1B78DAB2064BEC
:101D80001A70044AFB791370FB8918461037BD4658
:101D900080BD00BF1004002011040020800300203B
:101DA0001404002080B485B000AF03460A46FB71DE
:101DB0001346BB71394B1B78DBB2FA799A4211D1C9
:101DC000364B1B78DAB2364B1A70FA79354913461E
:101DD0005B001344DB000B4415331B78DAB22F4B46
:101DE0001A703EE0FA792F4913465B001344DB007A
:101DF0000B4414331B78FB73FA792A4913465B00B2
:101E00001344DB000B4415331B78BB73F979FA7B61
:101E100024480B465B000B44DB00034415331B785E
:101E2000D8B2204913465B001344DB000B44153342
:101E300002461A70BB7B062B13D0F979BA7B19487E
:101E40000B465B000B44DB00034414331B78D8B211
:101E5000144913465B001344DB000B441433024661
:101E60001A70FA790F4913465B001344DB000B44E8
:101E70000C3301221A70094B1B78DBB2062B07D1F9
:101E8000BB79002B04D1084B4FF0FF321A6000BF22
:101E900000BF1437BD465DF8047B70471004002076
:101EA00011040020800300201404002080B582B0BB
:101EB00000AF1A4B1B68B3F1FF3F26D0FFF702FEBD
:101EC0007860164B1B687A689A4205D8134B1A68DB
:101ED0007B68D31A7B600AE0114B1B881A467B682B
:101EE000D31A3B600D4B1B683A6813447B600D4B63
:101EF0001B781A467B6802FB03F37B600A4B1B7856
:101F00001A467B68D3407B6001E000237B607B68DE
:101F10009BB218460837BD4680BD00BF14040020A0
:101F20001C0400201A0400201904002080B582B08F
:101F300000AF0346FB80FB88002B08D1FFF7C2FDF2
:101F40000346214A1360032003F0E9F839E0FB88D7
:101F5000012B03D81D4B1B78012B02D0FB88013BC2
:101F6000FB8000BF1A4B1B68DB6803F00403002BE7
:101F7000F8D0174B1B68DB68DAB2154B1B6862F4AC
:101F80009062DA60134B4FF40022DA60032003F012
:101F9000D4F8114B5B691B0C1B04FA880E491343E0
:101FA0004B61FFF78FFD0346074A1360084B1B6820
:101FB0009A68074B1B6842F480629A60AFF3008016
:101FC00000BF0837BD4680BD14040020190400205E
:101FD00068060020000800580028004080B584B042
:101FE00000AF454B9B6803F48063B3F5806F07D166
:101FF00000BF424B1B68DB6803F00403002BF8D1E1
:102000003E4B1B689A683D4B1B6822F480629A60C5
:102010003B4B1B78FB73FA7B3A4913465B00134436
:10202000DB000B4408331B68BB60FFF73FFF034630
:10203000FB80FB88BA689A4205D20023BB81324BF1
:1020400001221A704DE0FB88304A128892B2134484
:102050001A46BB68934206D92C4B1B88BB812A4B7E
:1020600000221A703DE0BB689AB2FB88D31ABB818C
:10207000254B01221A7034E0FA7B224913465B009B
:102080001344DB000B4408331A68FB889A420AD2D7
:10209000FA7B1C4913465B001344DB000B440833F6
:1020A00000221A6013E0FA7B164913465B001344C2
:1020B000DB000B4408331968FB88FA7BC91A114806
:1020C00013465B001344DB00034408331960FA7BBA
:1020D0000C4913465B001344DB000B4415331B789B
:1020E000FB73FB7B062BC7D1BB891846FFF71EFF8E
:1020F00000BF1037BD4680BD0028004068060020A4
:102100001004002080030020180400201E0400207A
:1021100080B58AB000AFEFF310837B617B697B628F
:1021200072B600BF594B1B68CA225A62574B1B68D4
:1021300053225A62554B1B689A68544B1B6822F411
:1021400080629A60524B1B7887F8233097F82320DF
:10215000504913465B001344DB000B440C331B78DF
:10216000DBB2022B6ED197F823204A4913465B005D
:102170001344DB000B441B68FB6197F8232045499F
:1021800013465B001344DB000B4410331B68BB6138
:10219000414B1B78DBB2002B4CD097F823203D49F4
:1021A00013465B001344DB000B440D331B78DBB29A
:1021B000012B24D197F8233001211846FFF7F2FDB7
:1021C0007B6A3B613B6983F3108800BF97F823204B
:1021D000304913465B001344DB000B4404331A6898
:1021E00097F823301146184600F032FA274B1B6847
:1021F000CA225A62254B1B6853225A6212E07B6A3C
:10220000FB60FB6883F3108800BF97F82330184603
:1022100000F09AF91D4B1B68CA225A621B4B1B68BF
:1022200053225A6297F82330FA691946B86900F0C8
:1022300095FA22E0FFF7D2FE7B6ABB60BB6883F3AE
:1022400010881AE000BF114B1B68DB6803F0040321
:10225000002BF8D00D4B1B68DB68DAB20B4B1B6808
:1022600062F49062DA600D4B4FF40022DA607B6A10
:102270007B607B6883F3108800BF044B1B68FF22E0
:102280005A6200BF2837BD4680BD00BF68060020E7
:1022900010040020800300201804002000080058CB
:1022A00080B588B000AF03463960FB715E4B1B6898
:1022B000CA225A625C4B1B6853225A625B4B9B6872
:1022C0005A4A43F020039360584B9B68DBB203F0FB
:1022D0000703DBB2C3F10403DAB2554B1A70534B58
:1022E0001B6903F4FE034FF4FE023A613A6992FA65
:1022F000A2F2FA60FA687A617A69002A01D1202292
:1023000003E07A69B2FA82F2D2B2D340DBB201338F
:10231000DAB2484B1A70454B1B699BB2C3F30E03EC
:102320009BB201339AB2444B1A80434B1B88013B4A
:10233000404A127802FB03F3A3F5A0733C4A1278DB
:10234000D340BB61BB694FF6FE72934204D93B4B4D
:102350004FF6FF721A8003E0BB699AB2374B1A80BE
:102360004FF40020FFF79CFB4FF40020FFF784FBA5
:10237000FB79002B3DD1324B01221A70314B4FF0CB
:10238000FF321A600023FB770CE0FA7F2E491346D8
:102390005B001344DB000B440C3300221A70FB7FFC
:1023A0000133FB77FB7F052BEFD9284B06221A70F0
:1023B0001D4B1B689A681C4B1B6822F480629A6054
:1023C000194B1B68DB68DAB2174B1B6862F490622A
:1023D000DA601F4B4FF40022DA60032002F0ADFEFA
:1023E000114B1B689A68104B1B6842F480429A603C
:1023F00009E00D4B1B68DB6803F48063002B02D0FF
:10240000032002F08CFE084B1B68FF225A62002258
:102410000321032002F041FE032002F058FE00BF1A
:102420002037BD4680BD00BF680600200028004060
:10243000190400201A0400201C0400201E0400209F
:102440001804002014040020800300201004002041
:102450000008005880B48BB000AFF860B9603B60F2
:102460001346FB71002387F82630EFF31083FB61DE
:10247000FB693B6272B600BF04E097F82630013377
:1024800087F8263097F82630052B0CD897F82620A9
:102490002C4913465B001344DB000B440C331B78C0
:1024A000DBB2002BE9D197F82630062B38D097F80D
:1024B0002620244913465B001344DB000B440C33F5
:1024C00001221A703B6ABB61BB6983F3108800BFAD
:1024D00097F826201B4913465B001344DB000B448E
:1024E0001033FA681A6097F82620164913465B00E5
:1024F0001344DB000B440D33FA791A7097F8262049
:10250000104913465B001344DB000B443A681A6021
:10251000BB6897F826201A70002387F8273008E058
:102520003B6A7B617B6983F3108800BF012387F8D6
:10253000273097F8273018462C37BD465DF8047BC6
:10254000704700BF8003002080B586B000AF03460F
:10255000FB71EFF31083FB60FB687B6172B600BF19
:10256000032002F0C2FD344B1B68CA225A62324B70
:102570001B6853225A62FA79304913465B001344B0
:10258000DB000B440C331B78DBB2022B42D1FB790E
:1025900000211846FFF706FC294B1B78FB74FB7CD7
:1025A000062B2FD1274B9B6803F48063B3F5806F14
:1025B00007D100BF204B1B68DB6803F00403002B2E
:1025C000F8D11D4B1B689A681B4B1B6822F4806274
:1025D0009A6000BF184B1B68DB6803F00403002BF4
:1025E000F8D0154B1B68DB68DAB2134B1B6862F43A
:1025F0009062DA60144B4FF40022DA60032002F09C
:102600009CFD07E0114B1B78DBB2FA7C9A4201D0AB
:10261000FFF7E4FC084B1B68FF225A62032002F01C
:1026200056FD7B69BB60BB6883F3108800BF00BFA9
:102630001837BD4680BD00BF68060020800300201B
:102640001004002000280040000800581104002059
:1026500080B586B000AF03463960FB71FA793B491B
:1026600013465B001344DB000B440C331B78DBB2D6
:10267000022B03D1FB791846FFF766FFEFF31083B7
:10268000FB60FB687B6172B600BF032002F02DFD8A
:102690002F4B1B68CA225A622D4B1B6853225A6269
:1026A000FA792A4913465B001344DB000B440C33D0
:1026B00002221A70FA79254913465B001344DB00A5
:1026C0000B4408333A681A60FA79204913465B00D4
:1026D0001344DB000B4404333A681A60FB79184654
:1026E000FFF7B6FA03467B821A4B1B787B741A4BB2
:1026F0001B78DBB27A7C9A4202D0FFF76FFC13E0C2
:10270000FA79124913465B001344DB000B4408338B
:1027100019687B8AFA79C91A0C4813465B0013447E
:10272000DB00034408331960094B1B68FF225A621F
:10273000032002F0CCFC7B69BB60BB6883F310888C
:1027400000BF00BF1837BD4680BD00BF800300201A
:1027500068060020100400201104002080B584B019
:1027600000AFF8600B467A60FB727B68984700BF49
:102770001037BD4680BD000080B584B000AFB960A1
:102780007B600346FB731346BB81FB7B002B02D0AF
:10279000022B0DD019E00F4A7B6813600E4B0F4AD5
:1027A0001A60BB891A46B9680B4805F033FB0CE088
:1027B0000B4A7B6813600B4B0B4A1A60BB891A46A5
:1027C000B968084805F026FB00BF00BF1037BD46BA
:1027D00080BD00BF2004002000050020003801401B
:1027E000280400206C0400200080004080B586B0E2
:1027F00000AFB9607B600346FB731346BB810023C7
:10280000FB750023BB75FB7B002B02D0022B0FD086
:102810001DE01F4A7B6813601E4B1F4A1A60BB896C
:102820001A46B9681B4805F041FB0346FB750EE0EC
:102830001A4A7B6813601A4B1A4A1A60BB891A46F7
:10284000B968174805F032FB0346FB7500BFFB7DF6
:10285000032B17D801A252F823F000BF6D280008FF
:1028600073280008792800087F2800080023BB751A
:1028700009E00123BB7506E00223BB7503E00323D7
:10288000BB7500E000BFBB7D18461837BD4680BD54
:102890002404002000050020003801402C04002002
:1028A0006C0400200080004080B582B000AF7860EA
:1028B0007B681B680F4A93420AD00F4A93420FD19C
:1028C0000E4B1B68002B0DD00C4B1B68984709E082
:1028D0000B4B1B68002B07D0094B1B68984703E084
:1028E00000BF02E000BF00E000BF00BF0837BD46E8
:1028F00080BD00BF0080004000380140200400205F
:102900002804002080B582B000AF78607B681B6827
:102910000F4A93420AD00F4A93420FD10E4B1B68C5
:10292000002B0DD00C4B1B68984709E00B4B1B6824
:10293000002B07D0094B1B68984703E000BF02E05B
:1029400000BF00E000BF00BF0837BD4680BD00BF2C
:102950000080004000380140240400202C040020A6
:1029600080B483B000AF78604FF0B043D3F89030BC
:1029700023F018024FF0B0417B681343C1F8903048
:1029800000BF0C37BD465DF8047B704780B485B04E
:1029900000AF78604FF0B0439A6C4FF0B0417B6865
:1029A00013438B644FF0B0439A6C7B681340FB6019
:1029B000FB6800BF1437BD465DF8047B704780B4E8
:1029C00085B000AF78604FF0B043DA6C4FF0B041A3
:1029D0007B681343CB644FF0B043DA6C7B681340E1
:1029E000FB60FB6800BF1437BD465DF8047B704791
:1029F00080B500AF02F078F9FEF708FD00F014F89A
:102A000000F070F800F08EF800F05EF900F03EF98A
:102A100000F008F900F0F0F800F0E6F8FEF704FD29
:102A2000FEF743FFFCE7000080B59AB000AF07F166
:102A300020034822002118460BF0FCFC3B1D00221D
:102A40001A605A609A60DA601A615A619A6103F0FA
:102A500061F90020FFF784FF214B1B6823F4C0635A
:102A60001F4A43F4007313601D4B1B6803F4C063DB
:102A70003B603B6847233B624FF480337B6201231A
:102A8000BB624FF48073FB620123BB6440233B6352
:102A90000023FB6407F12003184603F0CFFC034634
:102AA000002B01D000F03CF96F237B600223BB6058
:102AB0000023FB6000233B6100237B610023BB619B
:102AC0000023FB613B1D0121184604F02BF803464F
:102AD000002B01D000F024F900BF6837BD4680BD4F
:102AE0000004005880B594B000AF3B46502200214E
:102AF00018460BF09FFC4FF440533B604FF480436B
:102B00007B640223BB641023FB643B46184604F03D
:102B100046FC0346002B01D000F002F900BF5037FD
:102B2000BD4680BD80B500AF064B074A1A60054818
:102B300003F06AF80346002B01D000F0F1F800BF63
:102B400080BD00BF30040020000C005880B500AFED
:102B5000234B244A1A60224B4FF4E1325A60204B37
:102B600000229A601E4B0022DA601D4B00221A617F
:102B70001B4B0C225A611A4B00229A61184B4FF4DE
:102B80000042DA61164B00221A62154B00225A628B
:102B9000134B00229A62124805F0ECF80346002B12
:102BA00001D000F0BDF800210D4807F04CF90346B4
:102BB000002B01D000F0B4F80021094807F081F99A
:102BC0000346002B01D000F0ABF8054807F002F9EE
:102BD0000346002B01D000F0A3F800BF80BD00BF6A
:102BE000000500200038014080B400AF00BFBD46A2
:102BF0005DF8047B7047000080B500AF074B084AC2
:102C00001A60064B00225A60044804F04FFE034647
:102C1000002B01D000F084F800BF80BD54060020D6
:102C20000010005880B500AF164B174A1A60154BBC
:102C300000225A60134B0F229A60124B47F6FF7224
:102C4000DA60104B00221A610E4B00229A610D4B84
:102C50000022DA610B4B00225A610A4804F05BFE45
:102C60000346002B01D000F05BF80022002105484C
:102C700004F05EFF0346002B01D000F051F800BFC6
:102C800080BD00BF680600200028004080B500AF6E
:102C90000420FFF77BFE0120FFF778FE0220FFF7FC
:102CA00075FE00220F210E2002F0F7F90E2002F02F
:102CB0000EFA00220F213A2002F0EFF93A2002F03A
:102CC00006FA00BF80BD000080B586B000AF3B1D96
:102CD00000221A605A609A60DA601A610420FFF7D5
:102CE0006EFE0120FFF76BFE0220FFF768FE002258
:102CF00020210A4802F034FF20237B600123BB60BF
:102D00000023FB6000233B613B1D1946034802F092
:102D1000B7FD00BF1837BD4680BD00BF00040048A6
:102D200080B400AF00BFBD465DF8047B704780B43F
:102D300000AF4FF0B043D3F890304FF0B04243F4BF
:102D40000043C2F8903000BFBD465DF8047B704779
:102D500080B485B000AF78604FF0B043DA6C4FF0CC
:102D6000B0417B681343CB644FF0B043DA6C7B68AF
:102D70001340FB60FB6800BF1437BD465DF8047B61
:102D8000704780B485B000AF78604FF0B0431A6DE3
:102D90004FF0B0417B6813430B654FF0B0431A6DA1
:102DA0007B681340FB60FB6800BF1437BD465DF8CD
:102DB000047B704780B485B000AF78604FF0B043BB
:102DC0009A6D4FF0B0417B6813438B654FF0B04371
:102DD0009A6D7B681340FB60FB6800BF1437BD46EB
:102DE0005DF8047B704780B485B000AF78604FF029
:102DF000B043DA6D4FF0B0417B681343CB654FF0C1
:102E0000B043DA6D7B681340FB60FB6800BF14378A
:102E1000BD465DF8047B704780B485B000AF786034
:102E20004FF0B0431A6E4FF0B0417B6813430B660E
:102E30004FF0B0431A6E7B681340FB60FB6800BF25
:102E40001437BD465DF8047B704780B500AF4FF482
:102E50000020FFF796FF002200212E2002F01DF92E
:102E60002E2002F034F900BF80BD000080B582B092
:102E700000AF78607B681B680D4A934213D14FF412
:102E80008010FFF77EFF002200212C2002F005F9C0
:102E90002C2002F01CF9002200212D2002F0FDF868
:102EA0002D2002F014F900BF0837BD4680BD00BFD9
:102EB000000C005880B5A0B000AF786007F16C033B
:102EC00000221A605A609A60DA601A6107F10C03F6
:102ED0005022002118460BF0ADFA7B681B68684A47
:102EE00093426ED10223FB600023BB6207F10C0307
:102EF000184604F054FA0346002B01D0FFF710FFE8
:102F00000120FFF770FF0120FFF722FF0C23FB6673
:102F100002233B6700237B670323BB670823FB6710
:102F200007F16C0319464FF0904002F0A9FC554B95
:102F3000554A1A60534B11225A60524B10229A6024
:102F4000504B0022DA604F4B80221A614D4B002219
:102F50005A614C4B00229A614A4B0022DA61494B7C
:102F600000221A62474802F0F7F80346002B01D00E
:102F7000FFF7D6FE4FF08853FB6500233B66002326
:102F800087F86430002387F865300123BB6607F1BA
:102F90005C0319463B4802F011FC0346002B01D0AC
:102FA000FFF7BEFE7B68374ADA67364A7B68936272
:102FB00000220021252002F070F8252002F087F879
:102FC0005AE07B681B68314A934255D10123FB606C
:102FD00000237B6207F10C03184604F0E0F9034676
:102FE000002B01D0FFF79CFE4FF48040FFF714FF49
:102FF0000220FFF7ADFEC023FB6602233B670123DF
:103000007B670323BB670723FB6707F16C03194644
:103010001F4802F035FC1F4B1F4A1A601D4B0F2240
:103020005A601C4B10229A601A4B0022DA60194B2E
:1030300080221A61174B00225A61164B00229A61B6
:10304000144B0022DA61134B00221A62114802F07D
:1030500083F80346002B01D0FFF762FE7B680D4A20
:10306000DA670C4A7B68936200220021242002F078
:1030700014F8242002F02BF800BF8037BD4680BD35
:1030800000800040940500204400024000380140C8
:1030900000040048F40500204404024080B596B0C6
:1030A00000AF786007F108035022002118460BF0AA
:1030B000C1F97B681B680D4A934213D14FF400732A
:1030C000BB604FF080533B6407F10803184604F0DF
:1030D00066F90346002B01D0FFF722FE4FF4802053
:1030E000FFF74FFE00BF5837BD4680BD00100058A7
:1030F00080B596B000AF786007F108035022002138
:1031000018460BF097F97B681B68144A934220D14C
:103110004FF40063BB604FF48073BB6407F1080396
:10312000184604F03CF90346002B01D0FFF7F8FDE8
:10313000FFF7FDFD4FF48060FFF73CFE0022002109
:10314000032001F0AAFF032001F0C1FF786804F01A
:10315000BBFD00BF5837BD4680BD00BF0028004002
:1031600080B400AF00BFBD465DF8047B704780B4FB
:1031700000AF00BFFDE780B400AF00BFFDE780B443
:1031800000AF00BFFDE780B400AF00BFFDE780B433
:1031900000AF00BFBD465DF8047B704780B400AF50
:1031A00000BFBD465DF8047B704780B400AF00BF30
:1031B000BD465DF8047B704780B500AF01F0EEFDC1
:1031C00000BF80BD80B500AFFEF7A2FF00BF80BD8D
:1031D00080B500AF024802F0A0F900BF80BD00BF7B
:1031E0009405002080B500AF024804F0DFFE00BF68
:1031F00080BD00BF0005002080B500AF024804F08C
:10320000D5FE00BF80BD00BF6C04002080B500AFBC
:1032100001F00CFA00BF80BD80B500AF01F03CFAB0
:1032200000BF80BD80B500AF02F0CAFC00BF80BD0A
:1032300080B500AF024802F070F900BF80BD00BF4A
:10324000F405002080B500AF102002F0A1FC00BF03
:1032500080BD80B500AF012002F09AFC00BF80BDA8
:1032600080B500AF022002F093FC00BF80BD80B4A7
:1032700000AF01231846BD465DF8047B704780B55A
:1032800082B000AF786039600BF026F90346162251
:103290001A604FF0FF3318460837BD4680BD80B531
:1032A00082B000AF78604FF0FF317868FFF7E7FF3A
:1032B00000BFFDE780B586B000AFF860B9607A6006
:1032C00000237B610AE0AFF300800146BB685A1C13
:1032D000BA60CAB21A707B6901337B617A697B6814
:1032E0009A42F0DB7B6818461837BD4680BD80B433
:1032F00083B000AF78604FF0FF3318460C37BD46FF
:103300005DF8047B704780B483B000AF78603960AB
:103310003B684FF400525A60002318460C37BD46F4
:103320005DF8047B704780B483B000AF7860012300
:1033300018460C37BD465DF8047B704780B485B0F5
:1033400000AFF860B9607A60002318461437BD46B4
:103350005DF8047B7047000080B586B000AF7860F0
:10336000144A154BD31A7B617B693B61134B1B6875
:10337000002B02D1114B124A1A60104B1A687B685D
:1033800013443A699A4207D20BF0A6F803460C227E
:103390001A604FF0FF3309E0084B1B68FB60074BD6
:1033A0001A687B681344054A1360FB68184618378F
:1033B000BD4680BD00000320001000008C060020E8
:1033C000C019002080B400AF034B1B681846BD46EF
:1033D0005DF8047B704700BF8075FF1F80B400AFAD
:1033E000034B1B68DBB21846BD465DF8047B704793
:1033F0008475FF1F80B400AF034B1B681B0A18467F
:10340000BD465DF8047B70478475FF1F80B592B0A0
:1034100000AF922387F847303B46432200211846ED
:103420000BF008F84423BB820823FB824FF4A86307
:103430003B830223BB760123FB7612233B772923B0
:103440007B779C23FB834FF4FA733B844FF0FF336D
:103450007B624FF4A4733B85012387F82A30202335
:1034600087F82D30D82387F82E30062387F82F30A1
:10347000032387F8313040F272637B860D2387F88F
:10348000383000F019FB0121022009F06FFE364AA6
:10349000002104200AF01CF83B46184608F0FEFB09
:1034A000034687F8463097F84630002B08D097F847
:1034B000463019462D480AF06DFEFFF731FC02E058
:1034C0002B480AF067FE00F00DFB09F043FB294B87
:1034D000002283F88020274B4FF6FF72DA82264ABB
:1034E0000021012009F0F4FF244A0021022009F004
:1034F000EFFF062007F0FAFD034687F8473097F8FC
:103500004730002B06D097F8473019461C480AF080
:1035100041FE02E01B480AF03DFE1B4B00221A70E0
:103520001A4B01221A7000F017FF194B002219499B
:103530000020FEF78FFF184B002218490020FEF7ED
:1035400089FF0C4B00225A760A4B00221A76144B44
:1035500080221A80134BA0221A80012000F072FCF6
:1035600000BF4837BD4680BDB5B6000888050108D4
:10357000C005010898060020254000086D4100089C
:10358000E80501082C060108240700202507002073
:103590008540000819070020954000081A07002000
:1035A0001C0700201E070020B0B590B004AF786063
:1035B000922387F82F307B680133BB62BB6A1B788C
:1035C000FF2B00F02081FF2B00F32C82052B02D073
:1035D0003E2B2ED026E2BB6A0233FB60FB68B3F8B9
:1035E00001309AB2AD4BDB8A9A4214D1AB4B002228
:1035F000DA82AA4B002283F88020A9480AF03AFE1A
:10360000FB68B3F801309BB21946FB68DB781A46B9
:10361000A4480AF0BFFD012000F014FCA24B0122D7
:103620001A709E4BDA8AA04B5A809F4800F080FEA9
:10363000FBE1BB6A0233FB61FB691B780C2B33D0C7
:103640000C2B00F3DE80012B6CD0032B40F0D980D3
:10365000FB6901337B6195480AF00CFE7B69B3F886
:1036600003309BB21846FCF745FF4FF00002904B29
:10367000FCF7AAFF02460B46104619467B69B3F8D1
:1036800005309BB21C467B69B3F807309BB21A46E3
:1036900013469B0013445B000193009402460B46C3
:1036A00084480AF077FDADE0FB690133BB618248D5
:1036B0000AF070FDBB691B78002B03D17F480AF02C
:1036C000D9FD02E07E480AF0D5FD744BDB8A07F194
:1036D0000A0207F10B01184607F080FD034687F840
:1036E0002F3097F82F30002B03D076480AF052FD88
:1036F00088E075480AF0BEFDFB7A022B0AD1BB7A3E
:10370000022B07D1FB7A1946BB7A1A466F480AF09A
:1037100041FD77E0FB7A1946BB7A1A466B480AF0FE
:1037200039FD6FE0FB6901333B615C4B93F88130FD
:103730001846FEF709FF3B69B3F801309BB2194602
:1037400063480AF027FD3B699B7A18463B695B7A20
:103750001C463B691B7A1D463B69DB791A463B696F
:103760009B7919463B695B790293019100922B4644
:103770002246014657480AF00DFD3B69B3F80B306D
:103780009BB21846FCF7B6FE4FF00002484BFCF720
:103790001BFF02460B46104619463B69B3F80D3035
:1037A0009BB21C463B69B3F80F309BB21A461346D6
:1037B0009B0013445B000193009402460B463D4876
:1037C0000AF0E8FC354B93F88030042B04D1334BDE
:1037D000062283F8802003E0304B052283F8802006
:1037E0003B69B3F801309AB22C4BDA822E4B00229F
:1037F0001A702A4BDA8A2C4B5A802B4800F098FD1D
:1038000000E000BF11E1BB6A02337B627B6A1B8868
:103810009BB241F60402934200F0EF8041F60402AD
:10382000934200F3018140F60E42934200F0F08093
:1038300040F60E42934200F3F78040F20A42934270
:1038400022DCB3F5806FC0F2EF80A3F580630A2B12
:1038500000F2EA8001A252F823F000BF933800087A
:10386000B5390008DD38000813390008293A000886
:103870001B390008293A0008F33900084F390008BD
:103880005F39000857390008B3F5006F00F0AD80CC
:10389000CAE011480AF0EEFCC3E000BF9806002021
:1038A000640601089006010820070020CC060108E4
:1038B0000000F43F000701086C0701089C0701089D
:1038C000A8070108B4070108D4070108F407010894
:1038D0001808010860080108B008010855480AF0F6
:1038E000C9FC554BDB8A5549184606F0ADFD034629
:1038F00087F82F3097F82F30002B06D097F82F300D
:1039000019464F480AF046FC8BE04E480AF0B2FCDC
:1039100087E04D480AF0AEFC83E04C480AF0AAFC70
:10392000454BDB8A184606F039FF034687F82F30EF
:1039300097F82F30002B06D097F82F3019464448BF
:103940000AF028FC6DE043480AF094FC69E0424824
:103950000AF090FC65E041480AF08CFC61E04048C8
:103960000AF088FC7B6A0233D3F8023019463D48DE
:103970000AF010FC7B6A0233D3F8023019463A4849
:103980000AF008FC2C4BDB8A0121184606F05AFF8E
:10399000034687F82F3097F82F30002B06D097F882
:1039A0002F30194631480AF0F5FB3AE030480AF06A
:1039B00061FC36E07B6A02333B622E480AF05AFC17
:1039C0003B6A9B78002B03D12B480AF053FC08E09C
:1039D0003B6A9B7819463B6ADB781A4627480AF00F
:1039E000D9FB0A200AF0E8FB1BE0254B01221A70E4
:1039F00017E024480AF0CEFB13E0012001F05AF84A
:103A00000D4B93F882300A211846FEF721FE08E09C
:103A10001D480AF0BFFB084BDB8A184607F025FA61
:103A200000BF01E000BF00E000BF012318463037AF
:103A3000BD46B0BDE00801089806002040E2010044
:103A4000080901083C0901086409010890090108F6
:103A5000B4090108E40901080C0A0108380A010840
:103A6000680A01089C0A0108B80A0108D00A01087E
:103A7000200B0108680B0108940B0108AC0B01082E
:103A800025070020E80B0108100C010880B500AFE5
:103A900000F08EFC00BF80BD80B500AF0021022089
:103AA00009F038FD00BF80BD80B400AF00BFBD4647
:103AB0005DF8047B7047000080B582B000AF064B14
:103AC0003B60064B7B603B461946054807F0D6FD38
:103AD00000BF0837BD4680BD2800032015420008FE
:103AE000DD410008F0B58DB006AF00233B80922386
:103AF000FB75A5480AF0BEFB07F04CFB0346FB75BF
:103B0000FB7D002B05D0FB7D1946A0480AF042FB47
:103B100002E09F480AF0AEFB00F040FA38613A69D3
:103B20000621002007F0F6F90346FB75FB7D002B0C
:103B300005D0FB7D194697480AF02CFB21E09648FA
:103B40000AF098FB3B6905331B7818463B69043340
:103B50001B781C463B6903331B781D463B690233C7
:103B60001B781A463B6901331B7819463B691B7861
:103B70000293019100922B462246014687480AF0A3
:103B800009FB3B6905331A78854B1A723B6904338C
:103B90001A78834B5A723B6903331A78804B9A72B6
:103BA0003B6902331A787E4BDA723B6901331A782B
:103BB0007B4B1A733B691A78794B5A73794A1021F7
:103BC000182007F0A7F90346FB75FB7D002B05D0F5
:103BD000FB7D194674480AF0DDFA02E073480AF0EA
:103BE00049FB734A1021082007F094F90346FB753E
:103BF000FB7D002B05D0FB7D19466E480AF0CAFA02
:103C000002E06D480AF036FB1821012007F007FAA0
:103C10000346FB75FB7D002B05D0FB7D19466748ED
:103C20000AF0B8FA02E066480AF024FB06F071FEDA
:103C30000346FB75FB7D002B05D0FB7D19466148D3
:103C40000AF0A8FA02E060480AF014FB0023FB73B4
:103C5000FB7B43F00103FB73FB7B002B2BD05B4B07
:103C6000BB60BA1DF87BBB1C01933B1D0093134640
:103C70000722002106F04FFC0346FB75FB7D002B5D
:103C800005D0FB7D194652480AF084FA02E05148FB
:103C90000AF0F0FAFC88BD88B868FCF7D1FA034650
:103CA000DAB2BB680093134600222946204607F08B
:103CB00033F80346FB75F88879883B460093022366
:103CC000002207F029F80346FB750222022100209A
:103CD00007F002FB0346FB75FB7D002B05D0FB7D47
:103CE00019463D480AF056FA02E03C480AF0C2FA8A
:103CF0003B4B01221A703A4B1B78184606F08CFA9F
:103D00000346FB75FB7D002B05D0FB7D194635482E
:103D10000AF040FA02E034480AF0ACFA304B0122D3
:103D20005A702F4B08221A712D4B10225A712C4BAE
:103D30000022DA702A4B2D4A9A60294B01229A7090
:103D4000274B9C78264B5D78254B1B79244A52796A
:103D50002349C9782248806800260496039002917E
:103D600001920093002301222946204606F0A8FA7A
:103D70000346FB75FB7D002B3CD0FB7D19461C48A0
:103D80000AF008FA39E000BF380C0108640C010899
:103D9000940C0108B40C0108180D01086C0D010801
:103DA0001000002088170108A80D0108000E010866
:103DB00098170108480E0108A00E0108E80E010836
:103DC000280F0108580F01088C0F0108B00F0108D7
:103DD000C00F0108F00F0108101001084C10010875
:103DE0009806002078100108B810010807B20100F9
:103DF000E81001080E480AF03DFA0E4B9B78002BA4
:103E00000FD006F0A7FC0346FB75FB7D002B05D009
:103E1000FB7D194608480AF0BDF902E007480AF0A0
:103E200029FA07480AF0B6F900BF1C37BD46F0BDB5
:103E3000341101089806002070110108B011010822
:103E4000E011010880B58CB008AF0346FB719223E6
:103E5000FB72FB79012B06D1414B1B88FB81414B47
:103E60001B88BB8105E04FF4C863FB814FF47A6384
:103E7000BB813D4B93F881301846FEF765FBFB791B
:103E8000022B19D1384B93F88030012B04D0364BDC
:103E900093F88030022B0FD106F0A0F80346FB7296
:103EA000FB7A002B05D0FB7A194630480AF072F9EC
:103EB00002E02F480AF0DEF92B4AFB7982F88030C5
:103EC000294B1B7EBA89F9890020069000200590B5
:103ED000284804900393284B02930823019300235E
:103EE00000930023002006F09DF80346FB72FB7A46
:103EF000002B05D0FB7A194620480AF04BF902E066
:103F00001F480AF0B7F91F490E2006F0B1FB03461F
:103F1000FB72FB7A002B0ED0FB79012B05D1FB7ACB
:103F2000194619480AF036F917E0FB7A194617487E
:103F30000AF030F911E0FB79012B0AD114480AF09C
:103F400029F9094B93F8813012491846FEF780FB96
:103F500003E011480AF01EF900BF1037BD4680BDCE
:103F60001C0700201E070020980600200C120108E4
:103F700058120108B1060020A8170108A012010874
:103F8000D8120108100000200013010834130108A2
:103F90006C13010846E001009413010880B586B057
:103FA00000AFFFF70FFA38613B69B3F1FF3F23D051
:103FB000FFF720FAB860FFF711FA78603B69DAB2D0
:103FC000164B1A703B691B0ADAB2144B5A707B68A5
:103FD000DAB2124B9A70BB68DAB2104BDA70BB6877
:103FE0001B0ADAB20D4B1A71BB681B0CDAB20B4B11
:103FF0005A710A4B7B610BE0002007F0FBFCF86074
:10400000FB68002B02D0FB687B6101E0044B7B6105
:104010007B6918461837BD4680BD00BF900600205A
:104020008017010880B582B000AF012000F05CFD70
:10403000104B93F88030052B17D09223FB7105F0BD
:10404000CDFF0346FB710B4B002283F88020FB79E8
:10405000002B03D008480AF09DF806E007480AF054
:1040600099F807480AF096F800BF00BF0837BD4628
:1040700080BD00BF98060020C4130108E8130108A2
:10408000F013010880B500AF0021012009F042FAC9
:1040900000BF80BD80B500AF012000F025FD00BF4E
:1040A00080BD000090B589B002AF0346FB80294B6C
:1040B0001B78012B49D1274B00221A70264B1B7805
:1040C0000133002B03F00103B8BF5B42DAB2224B8D
:1040D0001A70214B1B78214A9B00134493ED007A00
:1040E000F7EE046AC7EE267AFDEEE77A17EE903A0D
:1040F000FB82194B1B78194A9B00134493ED007AFD
:10410000F7EE046AC7EE267AFDEEE77A17EE903AEC
:10411000BB8200237B824FF4FA733B82104BD88A18
:104120007C8ABA8AF98A3B8A0093234607F051F9C0
:104130000346FB73FB7B002B03D00A480AF02AF8E6
:1041400003E009480AF026F800BF00BF1C37BD464F
:1041500090BD00BF25070020240700200800002094
:10416000980600200C1401083414010880B500AF33
:10417000084B93F88030012B0AD0064B93F880301F
:10418000002B05D0034BDB8A1846FFF78BFF00BFDF
:1041900000BF80BD9806002080B582B000AF786077
:1041A0000021042009F0B6F900BF0837BD4680BDE4
:1041B00080B582B000AF7860012009F017FA00BF27
:1041C0000837BD4680BD80B582B000AF7860012061
:1041D00009F02CFA00BF0837BD4680BD80B584B019
:1041E00000AF78607B68FB60FB685B68083318464B
:1041F00008F002FD0346FB72FB7A002B03D0FB683C
:1042000001221A7003E0FB6800221A7000BF103709
:10421000BD4680BD80B584B000AF0346FB71FB791D
:10422000002B02D0012B06D00BE03F23FB60F86887
:1042300009F09CF905E03F23FB60F86809F0B6F946
:1042400000BF00BF1037BD4680BD000080B584B000
:1042500000AF78607B681B78032B1AD0032B51DCEE
:10426000002B02D0012B0AD04CE02A4B01221A70FD
:10427000294809F0FFFF294809F08CFF45E0254B4C
:1042800000221A70264809F0F5FF244809F082FF41
:104290003BE07B685B681B78FB737B685B685B78E3
:1042A000BB73BB7B012B1DD11A4B9B78002B0CD110
:1042B000002000F0FFFB174B01229A70194809F00B
:1042C000D9FF164809F066FF1EE0002000F00CFC44
:1042D000104B00229A70144809F0CCFF0F4809F0E7
:1042E00059FF11E0BB7B002B0ED1002000F0FCFB3E
:1042F000084B00229A700D4809F0BCFF074809F0EE
:1043000049FF01E000BF00E000BF00BF1037BD461D
:1043100080BD00BF2807002064140108981401081C
:104320009C140108D014010800150108301501087B
:1043300080B582B000AF78607B681B78002B05D019
:10434000012B00D003E000F019F800E000BF00BF2F
:104350000837BD4680BD000080B500AF054A00218A
:10436000082009F0B5F8044B00221A7000F006F896
:1043700000BF80BDC14300082807002080B500AF02
:10438000002000F0B1FB084809F074FF074B012240
:104390005A70064B00229A70044B0122DA70034BCC
:1043A00000221A7100BF80BD601501082807002097
:1043B00080B500AF0021082009F0ACF800BF80BD37
:1043C00080B500AF0F4B1B79002B03D10D4B0122A1
:1043D0001A7102E00B4B00221A710A4B1B78002B5A
:1043E0000BD0094809F0D6FE084809F0D3FE084969
:1043F0004FF6426007F030FC03E0064809F0CAFEC1
:1044000000BF80BD2807002070150108981401081E
:104410002B070020B015010880B400AF054BDB6806
:10442000044A43F40043D36000BFBD465DF8047BFB
:10443000704700BF0004005880B483B000AF7860BC
:10444000064BD3F8D42005497B681343C1F8D43018
:1044500000BF0C37BD465DF8047B7047000800586C
:1044600080B483B000AF7860054B1A6A04497B685A
:1044700013430B6200BF0C37BD465DF8047B7047E9
:104480000008005880B485B000AF78604FF0B043AA
:104490001A6D4FF0B0417B6813430B654FF0B0438A
:1044A0001A6D7B681340FB60FB6800BF1437BD4684
:1044B0005DF8047B704780B485B000AF78604FF042
:1044C000B043D3F850214FF0B0417B681343C1F89B
:1044D00050314FF0B043D3F850217B681340FB605C
:1044E000FB6800BF1437BD465DF8047B704780B49D
:1044F00083B000AF78607B681B6843F480327B68D0
:104500001A6000BF0C37BD465DF8047B704780B46D
:1045100083B000AF78607B681B6843F001027B6862
:104520001A6000BF0C37BD465DF8047B704780B44D
:1045300083B000AF786039607B685A683B681B04C1
:10454000DB431A407B685A6000BF0C37BD465DF8FC
:10455000047B704780B483B000AF786039607B68BB
:104560005A683B681B041A437B685A6000BF0C37CB
:10457000BD465DF8047B704780B483B000AF7860BF
:1045800039607B685A683B68DB431A407B685A6035
:1045900000BF0C37BD465DF8047B704780B483B024
:1045A00000AF786039607B683A689A6000BF0C376A
:1045B000BD465DF8047B704780B483B000AF78607F
:1045C00039603B681A047B689A6000BF0C37BD46AF
:1045D0005DF8047B704780B483B000AF78603960C9
:1045E0007B68DA683B6813403A689A4201D101233C
:1045F00000E0002318460C37BD465DF8047B704789
:1046000080B483B000AF786039607B68DA693B685A
:1046100013403A689A4201D1012300E00023184672
:104620000C37BD465DF8047B7047000080B500AFD5
:1046300002211848FFF7E4FF0346002B08D0154B72
:104640005B6803F00203002B02D100F025F91EE0A5
:1046500001211048FFF7D4FF0346002B08D00D4B73
:104660005B6803F00103002B02D100F099F80EE023
:1046700008210848FFF7C4FF0346002B08D0054B6C
:104680005B6803F00803002B02D100F07DF900BF46
:1046900000BF80BD000C005880B500AF0221184853
:1046A000FFF799FF0346002B08D1154B5B6803F415
:1046B0000033002B02D100F0D3F81EE0082110488F
:1046C000FFF789FF0346002B08D10D4B5B6803F40D
:1046D0000023002B02D100F019F90EE02021084838
:1046E000FFF779FF0346002B08D1054B5B6803F405
:1046F0000013002B02D100F05FF800BF00BF80BDA7
:10470000000C005880B500AF4FF48010FFF7D3FEC7
:104710004FF40070FFF7A4FE4FF40070FFF78CFE1B
:1047200040BF20BFFFF778FE00BF80BD80B500AF5F
:104730004FF48010FFF7A6FE0648FFF7E8FE054895
:10474000FFF7D5FE2C2000F0C2FC2D2000F0BFFCAE
:1047500000BF80BD000C005880B584B000AFEFF3FF
:1047600010837B607B68FB6072B600BF0121064846
:10477000FFF702FFFB68BB60BB6883F3108800BFD4
:1047800000BF1037BD4680BD000C005880B500AF9B
:1047900001210248FFF710FF00BF80BD000C005848
:1047A00080B500AF08F00CFB01210248FFF7F6FED0
:1047B00000BF80BD000C005880B584B000AFEFF39F
:1047C00010837B607B68FB6072B600BF20210748C6
:1047D000FFF7C0FEFB68BB60BB6883F3108800BFB7
:1047E00008F01EFB00BF1037BD4680BD000C00580E
:1047F00080B584B000AFEFF310837B607B68FB6013
:1048000072B600BF02210648FFF7B6FEFB68BB6028
:10481000BB6883F3108800BF00BF1037BD4680BD62
:10482000000C005880B584B000AF02210B48FFF7A0
:10483000C3FEEFF310837B607B68FB6072B600BF42
:1048400002210648FFF773FEFB68BB60BB6883F379
:10485000108800BF00BF1037BD4680BD000C005857
:1048600080B584B000AFEFF310837B607B68FB60A2
:1048700072B600BF02210748FFF76CFEFB68BB6001
:10488000BB6883F3108800BF08F01EFB00BF103721
:10489000BD4680BD000C005880B500AF08F02AFB73
:1048A00002210248FFF77AFE00BF80BD000C0058CD
:1048B00080B586B000AF786008211248FFF78BFE04
:1048C0000346002B13D0104A7B681360EFF310836C
:1048D000FB60FB687B6172B600BF08210948FFF7E7
:1048E00026FE7B693B613B6983F3108805E07B68AA
:1048F000984708210348FFF75FFE00BF1837BD4601
:1049000080BD00BF000C00583007002080B584B087
:1049100000AFEFF310837B607B68FB6072B600BF73
:1049200008210A48FFF716FEFB68BB60BB6883F3EB
:10493000108800BF064B1B68984708210348FFF703
:104940003BFE00BF1037BD4680BD00BF000C0058C5
:104950003007002080B584B000AFEFF310837B6098
:104960007B68FB6072B600BF08210648FFF704FEB3
:10497000FB68BB60BB6883F3108800BF00BF1037C3
:10498000BD4680BD000C005880B500AF08F05AFB52
:1049900008210248FFF702FE00BF80BD000C00584E
:1049A000D458C4500433C4188C42F9D37047036000
:1049B00004308842FBD370470C48854600F01EF94E
:1049C0000B480C490C4A0023FFF7EDFF0B480C493C
:1049D0000023FFF7EEFF0B480B490023FFF7E9FF29
:1049E00009F080FDFEF704F8FEE700000000032058
:1049F0000800002014020020141C010850020020AE
:104A0000BC190020E4010320670A0320FEE780B4FC
:104A100085B000AF78604FF0B043DA6C4FF0B04132
:104A20007B681343CB644FF0B043DA6C7B68134070
:104A3000FB60FB6800BF1437BD465DF8047B704720
:104A400080B588B000AF0346FB7107F10C0300226C
:104A50001A605A609A60DA601A610220FFF7D7FF85
:104A6000FB79124A32F81330FB6001233B610023CB
:104A70007B610223BB61FB790D4A52F8233007F1B9
:104A80000C021146184600F0FBFEFB79084A52F86A
:104A90002300FB79054A32F813300022194601F051
:104AA0005FF800BF2037BD4680BD00BFB0170108CA
:104AB0002000002080B582B000AF0346FB71FB7977
:104AC000074A52F82300FB79064A32F813300122D4
:104AD000194601F045F800BF0837BD4680BD00BF4C
:104AE00020000020B017010880B582B000AF034657
:104AF000FB71FB79074A52F82300FB79064A32F82A
:104B000013300022194601F02BF800BF0837BD46CC
:104B100080BD00BF20000020B017010880B588B01C
:104B200000AF03460A46FB711346BB7107F10C0345
:104B300000221A605A609A60DA601A61FB79002BD1
:104B400003D10420FFF763FF0CE0FB79012B03D1B5
:104B50000820FFF75CFF05E0FB79022B02D108205B
:104B6000FFF755FFBB79002B17D1FB79204A32F8AC
:104B70001330FB6000233B6101237B610223BB6197
:104B8000FB791C4A52F8233007F10C0211461846F3
:104B900000F076FE0120FCF763FEBB79012B23D1E8
:104BA000FB79134A32F81330FB6001237B614FF429
:104BB00004133B61FB790F4A52F8233007F10C02D2
:104BC0001146184600F05CFEFB790B4AD35C5BB2E1
:104BD00000220F21184600F060FAFB79064AD35CE8
:104BE0005BB2184600F073FA00BF2037BD4680BDA7
:104BF000B81701082C000020C017010880B400AFCE
:104C0000264B00229A60254BD3F88830234A43F480
:104C10007003C2F888304FF0B0431B684FF0B042C9
:104C200043F0010313604FF0B0434FF4E0229A6069
:104C30004FF0B0431A684FF0B041194B13400B606E
:104C40004FF0B043D3F894304FF0B04223F0050357
:104C5000C2F894304FF0B043D3F898304FF0B042E0
:104C600023F00103C2F898304FF0B0430D4ADA60E8
:104C70004FF0B0430B4A1A614FF0B0431B684FF03E
:104C8000B04223F4802313604FF0B04300229A61B6
:104C900000BFBD465DF8047B704700BF00ED00E03B
:104CA000FBFEF6FA0010042280B400AF054B5B68EF
:104CB000044A43F00103536000BFBD465DF8047B26
:104CC000704700BF002004E080B400AF054B5B6874
:104CD000044A43F00203536000BFBD465DF8047B05
:104CE000704700BF002004E080B582B000AF002311
:104CF000FB710C4B1B680B4A43F480731360032059
:104D000000F0C0F9002000F00FF80346002B02D09D
:104D10000123FB7101E0FEF798F8FB79184608378C
:104D2000BD4680BD0040005880B584B000AF7860BB
:104D30000023FB73174B1B78002B24D002F09EF846
:104D40000246144B1B7819464FF47A73B3FBF1F308
:104D5000B2FBF3F3184600F0D6F90346002B0FD14F
:104D60007B680F2B09D8002279684FF0FF3000F0E4
:104D700094F9094A7B68136007E00123FB7304E0A0
:104D80000123FB7301E00123FB73FB7B1846103703
:104D9000BD4680BD400000203C00002080B400AF34
:104DA000064B1B781A46064B1B681344044A1360D3
:104DB00000BFBD465DF8047B704700BF4000002087
:104DC0003407002080B400AF034B1B681846BD4673
:104DD0005DF8047B704700BF3407002080B400AF4B
:104DE000034B1B681846BD465DF8047B704700BF47
:104DF0003C00002080B400AF034B1B781846BD4632
:104E00005DF8047B704700BF4000002080B500AF14
:104E1000FFF74AFF00BF80BD80B500AFFFF754FF2A
:104E200000BF80BD80B485B000AF78607B6803F0C0
:104E30000703FB600C4BDB68BB60BA684FF6FF03EF
:104E40001340BB60FB681A02BB68134343F0BF63A7
:104E500043F40033BB60044ABB68D36000BF14371F
:104E6000BD465DF8047B704700ED00E080B400AF04
:104E7000044BDB681B0A03F007031846BD465DF8C8
:104E8000047B704700ED00E080B483B000AF0346C0
:104E9000FB7197F90730002B0BDBFB7903F01F0246
:104EA000074997F907305B09012000FA02F241F83F
:104EB000232000BF0C37BD465DF8047B704700BF60
:104EC00000E100E080B483B000AF0346FB7197F9C6
:104ED0000730002B12DBFB7903F01F020A4997F918
:104EE00007305B09012000FA02F2203341F8232049
:104EF000BFF34F8F00BFBFF36F8F00BF00BF0C37F2
:104F0000BD465DF8047B704700E100E080B483B0EB
:104F100000AF0346FB7197F90730002B0CDBFB79E0
:104F200003F01F02074997F907305B09012000FAD7
:104F300002F2403341F8232000BF0C37BD465DF834
:104F4000047B704700E100E080B483B000AF03460B
:104F5000FB7197F90730002B0CDBFB7903F01F0284
:104F6000074997F907305B09012000FA02F2603324
:104F700041F8232000BF0C37BD465DF8047B704725
:104F800000E100E080B483B000AF03463960FB71FC
:104F900097F90730002B0ADB3B68DAB20C4997F926
:104FA00007301201D2B20B4483F800230AE03B68B9
:104FB000DAB20849FB7903F00F03043B1201D2B2C5
:104FC0000B441A7600BF0C37BD465DF8047B704772
:104FD00000E100E000ED00E080B489B000AFF860CF
:104FE000B9607A60FB6803F00703FB61FB69C3F1FA
:104FF0000703042B28BF0423BB61FB690433062B82
:1050000002D9FB69033B00E000237B614FF0FF32D4
:10501000BB6902FA03F3DA43BB681A407B699A4022
:105020004FF0FF317B6901FA03F3D9437B680B40F2
:10503000134318462437BD465DF8047B70470000D3
:1050400080B582B000AF78607B68013BB3F1807FB0
:1050500001D301230FE00A4A7B68013B53600F2113
:105060004FF0FF30FFF78EFF054B00229A60044B94
:1050700007221A60002318460837BD4680BD00BFCE
:1050800010E000E080B582B000AF78607868FFF78C
:10509000C9FE00BF0837BD4680BD80B586B000AFF1
:1050A0000346B9607A60FB73FFF7E0FE78617A68C7
:1050B000B9687869FFF790FF024697F90F301146FB
:1050C0001846FFF75FFF00BF1837BD4680BD80B5AB
:1050D00082B000AF0346FB7197F907301846FFF71F
:1050E000D3FE00BF0837BD4680BD80B582B000AF9B
:1050F0000346FB7197F907301846FFF7E3FE00BF40
:105100000837BD4680BD80B582B000AF7860786852
:10511000FFF796FF034618460837BD4680BD80B5A9
:1051200082B000AF0346FB7197F907301846FFF7CE
:10513000EDFE00BF0837BD4680BD80B582B000AF30
:105140000346FB7197F907301846FFF7FDFE00BFD5
:105150000837BD4680BD000080B584B000AF7860E0
:105160007B68002B01D101238EE07B681B681A4607
:10517000474B9A420FD87B681B681A46454B13442D
:10518000454AA2FB03231B099A007B685A647B688B
:10519000424A1A640EE07B681B681A46404B13446F
:1051A0003D4AA2FB03231B099A007B685A647B6873
:1051B0003C4A1A647B68022283F825207B681B68BE
:1051C0001B68FB60FB6823F4FF4323F07003FB6064
:1051D0007B689A687B68DB681A437B681B691A43A3
:1051E0007B685B691A437B689B691A437B68DB6950
:1051F0001A437B681B6A1343FA681343FB607B689E
:105200001B68FA681A60786800F074FA7B689B681B
:10521000B3F5804F02D17B6800225A607B685A68E0
:105220007B689B6C02F03F021A607B68DB6C7A68DB
:10523000126D5A607B685B68002B10D07B685B68DE
:10524000042B0CD8786800F093FA7B685B6D002221
:105250001A607B689B6D7A68D26D5A6008E07B6843
:1052600000225A657B6800229A657B680022DA6515
:105270007B680022DA637B68012283F825207B6843
:10528000002283F82420002318461037BD4680BD35
:1052900007040240F8FFFDBFCDCCCCCC000002409B
:1052A000F8FBFDBF0004024080B586B000AFF86097
:1052B000B9607A603B600023FB75FB6893F824308B
:1052C000012B01D1022366E0FB68012283F8242030
:1052D000FB6893F82530DBB2012B55D1FB68022225
:1052E00083F82520FB680022DA63FB681B681A68D4
:1052F000FB681B6822F001021A603B687A68B96893
:10530000F86800F0B9F9FB681B6B002B08D0FB684C
:105310001B681A68FB681B6842F00E021A600FE0F7
:10532000FB681B681A68FB681B6822F004021A609D
:10533000FB681B681A68FB681B6842F00A021A6067
:10534000FB689B6C1B6803F48033002B07D0FB6861
:105350009B6C1A68FB689B6C42F480721A60FB6855
:105360005B6D002B07D0FB685B6D1A68FB685B6D9B
:1053700042F480721A60FB681B681A68FB681B683D
:1053800042F001021A6005E0FB68002283F8242045
:105390000223FB75FB7D18461837BD4680BD80B4DF
:1053A00083B000AF78607B68002B01D101234FE010
:1053B0007B6893F82530DBB2022B08D07B6804228F
:1053C000DA637B68002283F82420012340E07B68B5
:1053D0001B681A687B681B6822F00E021A607B68E3
:1053E0009B6C1A687B689B6C22F480721A607B68E5
:1053F0001B681A687B681B6822F001021A607B68D0
:105400005B6C03F01C027B681B6C012101FA02F249
:105410005A607B68DB6C7A68126D5A607B685B6DE2
:10542000002B0CD07B685B6D1A687B685B6D22F487
:1054300080721A607B689B6D7A68D26D5A607B6857
:10544000012283F825207B68002283F82420002392
:1054500018460C37BD465DF8047B704780B584B0B4
:1054600000AF78600023FB737B6893F82530DBB2D4
:10547000022B05D07B680422DA630123FB7347E02B
:105480007B681B681A687B681B6822F00E021A6032
:105490007B681B681A687B681B6822F001021A602F
:1054A0007B689B6C1A687B689B6C22F480721A6024
:1054B0007B685B6C03F01C027B681B6C012101FAAA
:1054C00002F25A607B68DB6C7A68126D5A607B6806
:1054D0005B6D002B0CD07B685B6D1A687B685B6D25
:1054E00022F480721A607B689B6D7A68D26D5A6074
:1054F0007B68012283F825207B68002283F8242022
:105500007B689B6B002B03D07B689B6B786898470C
:10551000FB7B18461037BD4680BD80B584B000AF18
:1055200078607B681B6C1B68FB607B681B681B6872
:10553000BB607B685B6C03F01C0304229A40FB6831
:105540001340002B26D0BB6803F00403002B21D0AE
:105550007B681B681B6803F02003002B07D17B6866
:105560001B681A687B681B6822F004021A607B685B
:105570005B6C03F01C027B681B6C042101FA02F2D5
:105580005A607B681B6B002B71D07B681B6B786843
:1055900098476CE07B685B6C03F01C0302229A4026
:1055A000FB681340002B2ED0BB6803F00203002BD6
:1055B00029D07B681B681B6803F02003002B0BD1EC
:1055C0007B681B681A687B681B6822F00A021A60F5
:1055D0007B68012283F825207B685B6C03F01C024A
:1055E0007B681B6C022101FA02F25A607B68002280
:1055F00083F824207B68DB6A002B38D07B68DB6A69
:105600007868984733E07B685B6C03F01C030822E2
:105610009A40FB681340002B2AD0BB6803F00803B4
:10562000002B25D07B681B681A687B681B6822F0FA
:105630000E021A607B685B6C03F01C027B681B6CBB
:10564000012101FA02F25A607B680122DA637B6869
:10565000012283F825207B68002283F824207B68C0
:105660005B6B002B04D07B685B6B7868984700BF4E
:1056700000BF1037BD4680BD80B485B000AFF86074
:10568000B9607A603B60FB68DB6CFA68126D5A6047
:10569000FB685B6D002B04D0FB689B6DFA68D26DD4
:1056A0005A60FB685B6C03F01C02FB681B6C0121F9
:1056B00001FA02F25A60FB681B683A685A60FB689C
:1056C0009B68102B08D1FB681B687A689A60FB689E
:1056D0001B68BA68DA6007E0FB681B68BA689A6002
:1056E000FB681B687A68DA6000BF1437BD465DF856
:1056F000047B704780B485B000AF78607B681B681E
:105700001A46174B9A420AD87B685B6C9B089B0031
:1057100003F1804303F502337A68936407E07B6802
:105720005B6C9B089A000F4B13447A6893647B6808
:105730001B68DBB2083B0C4AA2FB03231B09FB607E
:105740007B680A4ADA64FB6803F01F0301229A406F
:105750007B681A6500BF1437BD465DF8047B70474F
:10576000070402401C080240CDCCCCCC800802408B
:1057700080B485B000AF78607B685B6803F03F035E
:10578000FB60FA680B4B13449B001A467B685A6512
:105790007B68094A9A65FB68013B03F00303012219
:1057A0009A407B68DA6500BF1437BD465DF8047B1C
:1057B000704700BF3F8200104009024080B483B0B0
:1057C00000AF786039607B6893F82530DBB2012B3D
:1057D0002BD17B6893F82430012B01D1022325E0E3
:1057E0007B68012283F824207B689B6C1A68124B2B
:1057F00013403A6811683A68D268013AD2041143FA
:105800003A68526811433A68127A120411433A68AE
:10581000527A520211437A68926C0B4313607B6890
:10582000002283F82420002300E0012318460C37CF
:10583000BD465DF8047B7047FFFD00E080B487B093
:1058400000AF78607B681B681B0C03F001037B6171
:105850007B681B6803F01F03012202FA03F33B611C
:105860007B695B0103F1B04303F60803FB60FB684F
:105870003A691A6000BF1C37BD465DF8047B70476B
:1058800080B487B000AF7860396000237B614CE161
:105890003B681A6801217B6901FA03F31340FB603E
:1058A000FB68002B00F03E813B685B6803F003035C
:1058B000012B05D03B685B6803F00303022B30D15A
:1058C0007B689B683B617B695B00032202FA03F300
:1058D000DB433A6913403B613B68DA687B695B00F4
:1058E00002FA03F33A6913433B617B683A699A60B1
:1058F0007B685B683B6101227B6902FA03F3DB434F
:105900003A6913403B613B685B681B0903F0010285
:105910007B6902FA03F33A6913433B617B683A6996
:105920005A603B685B6803F00303032B17D07B6866
:10593000DB683B617B695B00032202FA03F3DB4314
:105940003A6913403B613B689A687B695B0002FAE5
:1059500003F33A6913433B617B683A69DA603B6859
:105960005B6803F00303022B23D17B69DA087B68B1
:10597000083253F822303B617B6903F007039B0038
:105980000F2202FA03F3DB433A6913403B613B68A1
:105990001A697B6903F007039B0002FA03F33A6973
:1059A00013433B617B69DA087B680832396943F845
:1059B00022107B681B683B617B695B00032202FA53
:1059C00003F3DB433A6913403B613B685B6803F0D8
:1059D00003027B695B0002FA03F33A6913433B61FC
:1059E0007B683A691A603B685B6803F44033002BBC
:1059F00000F09880544A7B699B08023352F82330A8
:105A00003B617B6903F003039B000F2202FA03F35F
:105A1000DB433A6913403B617B68B3F1904F19D087
:105A20007B684A4A934213D07B68494A93420DD01F
:105A30007B68484A934207D07B68474A934201D12A
:105A4000042308E0072306E0032304E0022302E026
:105A5000012300E000237A6902F0030292009340E0
:105A60003A6913433B6138497B699B0802333A69C1
:105A700041F82320394B1B683B61FB68DB433A69E3
:105A800013403B613B685B6803F48013002B03D039
:105A90003A69FB6813433B61304A3B6913602F4B03
:105AA0005B683B61FB68DB433A6913403B613B68E1
:105AB0005B6803F40013002B03D03A69FB681343BF
:105AC0003B61264A3B695360244BD3F880303B61ED
:105AD000FB68DB433A6913403B613B685B6803F456
