:020000040800F2
:1000000000000320D1550008013D00080F3D000805
:10001000173D00081F3D0008273D000800000000B4
:100020000000000000000000000000002F3D00085C
:100030003D3D0008000000004B3D0008593D000810
:10004000255600082556000825560008653D00087D
:100050002556000825560008F33D0008013E00081B
:100060002556000825560008E53D000825560008DD
:100070002556000825560008713D00082556000841
:100080002556000825560008255600082556000864
:100090002556000825560008255600082556000854
:1000A0002556000825560008255600082556000844
:1000B0002556000825560008255600082556000834
:1000C0002556000825560008255600082556000824
:1000D000853D0008993D0008255600082556000872
:1000E0002556000825560008255600082556000804
:1000F000AD3D0008B93D0008C53D00082556000883
:1001000025560008255600082556000825560008E3
:1001100025560008255600082556000825560008D3
:100120002556000825560008D13D00082556000830
:0C0130002556000825560008255600083A
:1001400010B5054C237833B9044B13B10448AFF311
:1001500000800123237010BD540200200000000025
:10016000081D010808B5034B1BB103490348AFF351
:10017000008008BD0000000058020020081D010892
:1001800010F8012B11F8013B012A28BF9A42F7D041
:10019000D01A7047000000000000000000000000BE
:1001A00001F0FF01102A2BDB10F0070F08D010F828
:1001B000013B013A8B422DD010F0070F42B3F6D12C
:1001C000F0B441EA012141EA014122F007047FF045
:1001D00000070023F0E80256083C85EA010586EA9C
:1001E000010685FA47F5A3FA87F586FA47F6A5FAD8
:1001F00087F68EB9EED1F0BC01F0FF0102F00702E4
:1002000032B110F8013B013A83EA010313B1F8D18E
:100210000020704701387047002D06BF354603386F
:10022000073815F0010F07D1013015F4807F02BFA8
:10023000013015F4C03F0130F0BC0138704700BFF9
:10024000034613F8012B002AFBD1181A0138704716
:1002500081F0004102E000BF83F0004330B54FEA77
:1002600041044FEA430594EA050F08BF90EA020FE4
:100270001FBF54EA000C55EA020C7FEA645C7FEA77
:10028000655C00F0E2804FEA5454D4EB5555B8BF9A
:100290006D420CDD2C4480EA020281EA030382EA0B
:1002A000000083EA010180EA020281EA0303362D9D
:1002B00088BF30BD11F0004F4FEA01314FF4801C70
:1002C0004CEA113102D0404261EB410113F0004F82
:1002D0004FEA03334CEA133302D0524263EB430339
:1002E00094EA050F00F0A780A4F10104D5F1200ED7
:1002F0000DDB02FA0EFC22FA05F2801841F1000132
:1003000003FA0EF2801843FA05F359410EE0A5F105
:1003100020050EF1200E012A03FA0EFC28BF4CF036
:10032000020C43FA05F3C01851EBE37101F00045EC
:1003300007D54FF0000EDCF1000C7EEB00006EEBF9
:100340000101B1F5801F1BD3B1F5001F0CD3490883
:100350005FEA30004FEA3C0C04F101044FEA4452DA
:1003600012F5800F80F09A80BCF1004F08BF5FEA61
:10037000500C50F1000041EB045141EA050130BD41
:100380005FEA4C0C404141EB0101013C28BFB1F553
:10039000801FE9D291F0000F04BF01460020B1FA9E
:1003A00081F308BF2033A3F10B03B3F120020CDA71
:1003B0000C3208DD02F1140CC2F10C0201FA0CF04F
:1003C00021FA02F10CE002F11402D8BFC2F1200CB4
:1003D00001FA02F120FA0CFCDCBF41EA0C0190406A
:1003E000E41AA2BF01EB0451294330BD6FEA0404B3
:1003F0001F3C1CDA0C340EDC04F11404C4F120029E
:1004000020FA04F001FA02F340EA030021FA04F3AF
:1004100045EA030130BDC4F10C04C4F1200220FA06
:1004200002F001FA04F340EA0300294630BD21FA44
:1004300004F0294630BD94F0000F83F4801306BF0A
:1004400081F480110134013D4EE77FEA645C18BFFE
:100450007FEA655C29D094EA050F08BF90EA020F95
:1004600005D054EA000C04BF1946104630BD91EA8D
:10047000030F1EBF0021002030BD5FEA545C05D190
:100480004000494128BF41F0004130BD14F58004CF
:100490003CBF01F5801130BD01F0004545F0FE4143
:1004A00041F470014FF0000030BD7FEA645C1ABF78
:1004B000194610467FEA655C1CBF0B46024650EAAF
:1004C000013406BF52EA033591EA030F41F40021DB
:1004D00030BD00BF90F0000F04BF0021704730B561
:1004E0004FF4806404F132044FF000054FF0000136
:1004F00050E700BF90F0000F04BF0021704730B5F7
:100500004FF4806404F1320410F0004548BF4042CB
:100510004FF000013EE700BF42004FEAE2014FEA20
:1005200031014FEA02701FBF12F07F4393F07F4FFB
:1005300081F06051704732F07F4208BF704793F0FE
:100540007F4F04BF41F40021704730B54FF4607411
:1005500001F0004521F000411CE700BF50EA010214
:1005600008BF704730B54FF000050AE050EA0102BD
:1005700008BF704730B511F0004502D5404261EB2D
:1005800041014FF4806404F132045FEA915C3FF46E
:10059000D8AE4FF003025FEADC0C18BF03325FEA0B
:1005A000DC0C18BF033202EBDC02C2F1200300FABC
:1005B00003FC20FA02F001FA03FE40EA0E0021FAE1
:1005C00002F11444BDE600BF70B54FF0FF0C4CF4CF
:1005D000E06C1CEA11541DBF1CEA135594EA0C0F81
:1005E00095EA0C0F00F0DEF82C4481EA030621EABC
:1005F0004C5123EA4C5350EA013518BF52EA0335F7
:1006000041F4801143F4801338D0A0FB02CE4FF0A8
:100610000005E1FB02E506F00042E0FB03E54FF0D8
:100620000006E1FB03569CF0000F18BF4EF0010ED0
:10063000A4F1FF04B6F5007F64F5407404D25FEACC
:100640004E0E6D4146EB060642EAC62141EA55517F
:100650004FEAC52040EA5E504FEACE2EB4F1FD0CC1
:1006600088BFBCF5E06F1ED8BEF1004F08BF5FEA3F
:10067000500E50F1000041EB045170BD06F00046F1
:1006800046EA010140EA020081EA0301B4EB5C049E
:10069000C2BFD4EB0C0541EA045170BD41F4801196
:1006A0004FF0000E013C00F3AB8014F1360FDEBFBB
:1006B000002001F0004170BDC4F10004203C35DA97
:1006C0000C341BDC04F11404C4F1200500FA05F31A
:1006D00020FA04F001FA05F240EA020001F00042BB
:1006E00021F0004110EBD37021FA04F642EB060131
:1006F0005EEA430E08BF20EAD37070BDC4F10C045B
:10070000C4F1200500FA04F320FA05F001FA04F21E
:1007100040EA020001F0004110EBD37041F100010A
:100720005EEA430E08BF20EAD37070BDC4F1200515
:1007300000FA05F24EEA020E20FA04F301FA05F27D
:1007400043EA020321FA04F001F0004121FA04F225
:1007500020EA020000EBD3705EEA430E08BF20EAF5
:10076000D37070BD94F0000F0FD101F0004640002F
:1007700041EB010111F4801F08BF013CF7D041EAB1
:10078000060195F0000F18BF704703F000465200B5
:1007900043EB030313F4801F08BF013DF7D043EA86
:1007A0000603704794EA0C0F0CEA135518BF95EA3C
:1007B0000C0F0CD050EA410618BF52EA4306D1D1C3
:1007C00081EA030101F000414FF0000070BD50EAE2
:1007D000410606BF1046194652EA430619D094EA6C
:1007E0000C0F02D150EA013613D195EA0C0F05D156
:1007F00052EA03361CBF104619460AD181EA0301AA
:1008000001F0004141F0FE4141F470014FF0000061
:1008100070BD41F0FE4141F4780170BD70B54FF0FC
:10082000FF0C4CF4E06C1CEA11541DBF1CEA13557C
:1008300094EA0C0F95EA0C0F00F0A7F8A4EB05045E
:1008400081EA030E52EA03354FEA013100F0888055
:100850004FEA03334FF0805545EA131343EA12631E
:100860004FEA022245EA111545EA10654FEA0026D3
:100870000EF000419D4208BF964244F1FD0404F58C
:10088000407402D25B084FEA3202B61A65EB0305E8
:100890005B084FEA32024FF480104FF4002CB6EBA5
:1008A000020E75EB030E22BFB61A754640EA0C0025
:1008B0005B084FEA3202B6EB020E75EB030E22BF65
:1008C000B61A754640EA5C005B084FEA3202B6EBA6
:1008D000020E75EB030E22BFB61A754640EA9C0065
:1008E0005B084FEA3202B6EB020E75EB030E22BF35
:1008F000B61A754640EADC0055EA060E18D04FEAF3
:10090000051545EA16754FEA06164FEAC30343EA92
:1009100052734FEAC2025FEA1C1CC0D111F4801F5F
:100920000BD141EA00014FF000004FF0004CB6E758
:1009300011F4801F04BF01430020B4F1FD0C88BFF7
:10094000BCF5E06F3FF6AFAEB5EB030C04BFB6EB02
:10095000020C5FEA500C50F1000041EB045170BDF5
:100960000EF0004E4EEA113114EB5C04C2BFD4EB22
:100970000C0541EA045170BD41F480114FF0000EA6
:10098000013C90E645EA060E8DE60CEA135594EA22
:100990000C0F08BF95EA0C0F3FF43BAF94EA0C0F25
:1009A0000AD150EA01347FF434AF95EA0C0F7FF49A
:1009B00025AF104619462CE795EA0C0F06D152EAEE
:1009C00003353FF4FDAE1046194622E750EA4106D2
:1009D00018BF52EA43067FF4C5AE50EA41047FF4E3
:1009E0000DAF52EA43057FF4EBAE12E74FF0FF3C48
:1009F00006E000BF4FF0010C02E000BF4FF0010C19
:100A00004DF804CD4FEA410C7FEA6C5C4FEA430C91
:100A100018BF7FEA6C5C1BD001B050EA410C0CBFE0
:100A200052EA430C91EA030F02BF90EA020F002042
:100A3000704710F1000F91EA030F58BF994208BFA9
:100A400090422CBFD8176FEAE37040F00100704766
:100A50004FEA410C7FEA6C5C02D150EA013C07D1BD
:100A60004FEA430C7FEA6C5CD6D152EA033CD3D008
:100A70005DF8040B704700BF8446104662468C4602
:100A80001946634600E000BF01B5FFF7B7FF002835
:100A900048BF10F1000F01BD4DF808EDFFF7F4FF5E
:100AA0000CBF012000205DF808FB00BF4DF808EDE9
:100AB000FFF7EAFF34BF012000205DF808FB00BF0C
:100AC0004DF808EDFFF7E0FF94BF012000205DF82E
:100AD00008FB00BF4DF808EDFFF7CEFF94BF0120E3
:100AE00000205DF808FB00BF4DF808EDFFF7C4FFDC
:100AF00034BF012000205DF808FB00BF4FEA410C25
:100B00007FEA6C5C02D150EA013C0AD14FEA430C07
:100B10007FEA6C5C02D152EA033C02D14FF0000044
:100B200070474FF0010070474FEA410212F5001282
:100B300015D211D56FF47873B3EB625212D94FEA24
:100B4000C12343F0004343EA505311F0004F23FA0E
:100B500002F018BF404270474FF00000704750EA63
:100B6000013005D111F0004008BF6FF00040704720
:100B70004FF00000704700BF53B94AB9002908BFC1
:100B800000281CBF4FF0FF314FF0FF3000F088B954
:100B9000ADF1080C6DE904CE00F006F8DDF804E0D4
:100BA000DDE9022304B070472DE9F047089D8E4629
:100BB00004468846002B4AD18A42174662D9B2FAC7
:100BC00082F64EB1C6F1200301FA06F820FA03F3CB
:100BD000B74043EA0808B4404FEA174E1FFA87FCB3
:100BE000B8FBFEF1230C0EFB118843EA084301FB1E
:100BF0000CF29A4209D9FB1801F1FF3080F0EA802B
:100C00009A4240F2E78002393B449A1AA3B2B2FBFF
:100C1000FEF00EFB102243EA024300FB0CFC9C4555
:100C200009D9FB1800F1FF3280F0D6809C4540F2D4
:100C3000D3803B44023840EA0140A3EB0C0300217F
:100C40001DB1F3400022C5E90032BDE8F0878B42B8
:100C500005D90DB1C5E9000100210846F5E7B3FA51
:100C600083F1002946D1734502D3824200F2058107
:100C7000841A6EEB030201209046002DE5D0C5E9F1
:100C80000048E2E7002A00F09080B2FA82F6002ED7
:100C900040F0A4808A1A030C4FEA174E80B2BCB20F
:100CA0000121B2FBFEFC0EFB1C2243EA024304FBC3
:100CB0000CF29A4207D9FB180CF1FF3802D29A4283
:100CC00000F2E080C4469B1AB3FBFEF20EFB123327
:100CD00040EA034302FB04F49C4207D9FB1802F1EB
:100CE000FF3002D29C4200F2CA8002461B1B42EA3D
:100CF0000C40A5E7C1F120068B4022FA06F71F43FE
:100D00000EFA01F420FA06F32EFA06FE4FEA17490E
:100D1000234300FA01F81FFA87FCBEFBF9F01C0C14
:100D200009FB10EE44EA0E4400FB0CFEA64502FA55
:100D300001F209D93C1900F1FF3A80F09C80A645E8
:100D400040F2998002383C44A4EB0E041FFA83FE63
:100D5000B4FBF9F309FB13444EEA044403FB0CFC17
:100D6000A44508D93C1903F1FF3E80F08280A445D8
:100D70007FD9023B3C4443EA0040A4EB0C04A0FBB7
:100D800002EC64457346E14662D35FD05DB1B8EBD7
:100D9000030264EB090404FA06F622FA01F31E4387
:100DA000CC40C5E9006400214FE7B1FBF2FC010C27
:100DB00041EA0E4180B240EA01423B4638463C4699
:100DC000B846BE462026B1FBF7F1A2EB080241EA85
:100DD0000C4166E7014618E710462CE7C6F12002F1
:100DE0002EFA02F3B740B14020FA02F24FEA174E52
:100DF0000A43B3FBFEF8BCB20EFB1833110C41EAF8
:100E0000034108FB04F9B04089454FEA104380B222
:100E10003ED9791808F1FF3C01D289451FD8A1EBD2
:100E20000901B1FBFEF909FB04F80EFB191192B29E
:100E300042EA0142424529D2BA1809F1FF31C4D22F
:100E40004245C2D2A9F102013A44BEE7F0459DD223
:100E5000BEEB02036CEB070C0138E14696E7A7EB0B
:100E600009094944A8F1020CB1FBFEF909FB04F899
:100E7000DBE773467FE7504666E70846FDE63B44FE
:100E8000023A33E7ACF1020C3B441CE749469CE7CD
:100E9000A1EB0901C446B1FBFEF909FB04F8C4E764
:100EA000704700BF80B483B000AF7860064BD3F8C2
:100EB000902005497B681343C1F8903000BF0C3780
:100EC000BD465DF8047B70470008005880B485B0CB
:100ED00000AF78604FF0B043DA6C4FF0B0417B6800
:100EE0001343CB644FF0B043DA6C7B681340FB6074
:100EF000FB6800BF1437BD465DF8047B704780B4C3
:100F000085B000AF78604FF0B043D3F84C214FF07C
:100F1000B0417B681343C1F84C314FF0B043D3F874
:100F20004C217B681340FB60FB6800BF1437BD4653
:100F30005DF8047B704780B500AF04F073FD04F0EA
:100F400077FD4FF48030FFF7ADFF0BF08DFF00F021
:100F500021F800F0C1F800BF80BD0000B0B588B036
:100F600000AF0B4B3C1D1D460FCD0FC495E807008D
:100F700003C422800234130C23700DF0C1FC3B1D0E
:100F800018460CF016FB00BF2037BD46B0BD00BFB1
:100F9000201D010880B588B000AF3B1D00221A60FB
:100FA0005A609A60DA601A610023BB8300237B8356
:100FB00000233B830023FB7736E0FB7F434ADB00C3
:100FC00013449B79002B2CD0FB7F404A52F83330DE
:100FD0003F4A93421BD03E4A934221D8B3F1904FEF
:100FE00003D03C4A934209D01AE0FB7F374ADB002A
:100FF00013449A88BB8B1343BB8312E0FB7F334AB5
:10100000DB0013449A887B8B13437B8309E0FB7FCF
:101010002E4ADB0013449A883B8B13433B8300E04A
:1010200000BFFB7F0133FB77FB7F252BC5D9002356
:10103000FB600123BB6003233B61BB8B002B14D0FF
:10104000BB8B7B600120FFF741FF0120FFF757FFBB
:101050003B1D19464FF0904005F01EFABB8B002255
:1010600019464FF0904005F09FFB7B8B002B12D070
:101070007B8B7B600220FFF729FF0220FFF73FFFF9
:101080003B1D1946134805F007FA7B8B00221946D1
:10109000104805F089FB3B8B002B13D03B8B7B600A
:1010A0000420FFF713FF0420FFF729FF3B1D19461B
:1010B000074805F0F1F93B8B00221946044805F07A
:1010C00073FB00BF00BF2037BD4680BD1033010851
:1010D000000800480004004880B400AF00BFBD46CF
:1010E0005DF8047B704780B500AF02F035FA00BFB1
:1010F00080BD80B584B000AFF8600B467A607B811C
:101100007A897B68F968002001F070FB00BF103716
:10111000BD4680BD80B483B000AF7860074BD3F884
:10112000803023F0070205497B681343C1F8803003
:1011300000BF0C37BD465DF8047B704700040058C3
:1011400080B483B000AF7860064BD3F89020054997
:101150007B681343C1F8903000BF0C37BD465DF883
:10116000047B70470008005880B483B000AF7860FB
:101170004FF0B0430A4AC3F89C204FF0B043D3F875
:101180009C3023F47C527B681B024FF0B041134328
:10119000C1F89C3000BF0C37BD465DF8047B70473A
:1011A000FECAFECA80B483B000AF78604FF0B0438F
:1011B0009B6823F400424FF0B0417B6813438B607F
:1011C00000BF0C37BD465DF8047B704780B400AFAC
:1011D0004FF0B043D3F890304FF0B04243F4803337
:1011E000C2F8903000BFBD465DF8047B704780B404
:1011F00000AF4FF0B043D3F890304FF0B04223F43B
:101200008033C2F8903000BFBD465DF8047B704764
:1012100080B400AF4FF0B043D3F8943003F0806354
:10122000B3F1806F01D1012300E000231846BD46D1
:101230005DF8047B704780B400AF4FF0B043D3F843
:10124000943003F08053B3F1805F01D1012300E0BB
:1012500000231846BD465DF8047B704780B485B016
:1012600000AF78604FF0B0431A6D4FF0B0417B682B
:1012700013430B654FF0B0431A6D7B681340FB605E
:10128000FB6800BF1437BD465DF8047B7047000063
:1012900080B400AF044B1B68C3F30B031846BD4674
:1012A0005DF8047B704700BF002004E080B400AF0D
:1012B000044B1B681B0C9BB21846BD465DF8047BB3
:1012C000704700BF002004E080B483B000AF7860B6
:1012D00039607B685A683B681B041A437B685A6014
:1012E00000BF0C37BD465DF8047B704780B483B007
:1012F00000AF786039607B685A683B681A437B6846
:101300005A6000BF0C37BD465DF8047B704780B45F
:1013100083B000AF786039607B685A693B681B0412
:101320001A437B685A6100BF0C37BD465DF8047BE9
:10133000704780B483B000AF786039607B685A69C9
:101340003B681A437B685A6100BF0C37BD465DF8A5
:10135000047B704780B483B000AF786039607B68ED
:101360003A689A6000BF0C37BD465DF8047B704751
:1013700080B483B000AF786039607B683A689A6166
:1013800000BF0C37BD465DF8047B704780B400AFEA
:10139000054B1B69044A23F00403136100BFBD46DB
:1013A0005DF8047B704700BF00ED00E080B483B0BF
:1013B00000AF78607B68FF225A6200BF0C37BD46E1
:1013C0005DF8047B704780B483B000AF78607B68C1
:1013D000CA225A627B6853225A6200BF0C37BD464C
:1013E0005DF8047B704780B483B000AF78603960EB
:1013F0007B689B6823F007023B681A437B689A600E
:1014000000BF0C37BD465DF8047B704780B500AF68
:10141000044B4FF400421A6100F030F800F070F80D
:1014200000BF80BD0040005880B500AF00F07CF8E0
:1014300000F094F80949002000F032FFFFF77BFD2F
:10144000012101200DF0FAFA00F0EAF900F0F8F9B4
:1014500000F07AFA00F090F800BF80BD1407002079
:1014600080B400AF00BFBD465DF8047B704780B517
:1014700000AF5020FFF764FE00BF80BD80B500AF15
:1014800000F004F800F01AF800BF80BD80B500AF8E
:10149000FFF7BEFE0346002B0DD0FFF7CCFE034640
:1014A000002B08D106F098F806F096F8FFF78EFEAC
:1014B000FFF79DFE00BF00BF80BD000080B500AFFC
:1014C0004FF48010FFF7CAFE3F210C48FFF742FFA0
:1014D0003F210A48FFF74CFF3F210848FFF7F4FE81
:1014E0003F210648FFF713FF3F210448FFF7FEFEA8
:1014F0003F210248FFF71DFF00BF80BD000C0058D0
:1015000080B582B000AF00200BF0E8FE78607B6809
:10151000002B05D07B689B791846FFF725FE00BF9E
:1015200000BF0837BD4680BD80B500AFFFF798FF0C
:10153000FFF79DFF00F002F800BF80BD80B500AF4F
:101540000548FFF740FF00210348FFF74CFF024822
:10155000FFF72CFF00BF80BD0028004080B500AF22
:101560004FF40040FFF71EFE0DF056FA0420FFF77F
:10157000D1FD00BF80BD000080B588B000AF0DF088
:1015800009F8114A002140200DF084FB0F4B3B600D
:101590000F4B7B603B4619460E480CF0E5F80E4BAE
:1015A000BB600E4BFB600E4B3B6140F23C537B61DA
:1015B00007F1080318460DF02FF90CF0E5FF00BF06
:1015C0002037BD4680BD00BFA1D7000834070320E7
:1015D000E5150008FD1500084C090320400803200C
:1015E000F801032080B483B000AF0346FB7100BF55
:1015F0000C37BD465DF8047B7047000080B588B0AD
:1016000000AF78607B685B680B33FB61FB691B880C
:101610009BB2A3F51243072B60D801A252F823F026
:10162000411600088316000891160008DD16000810
:10163000AD160008BD160008C5160008D51600082E
:1016400007F10C0318460BF0E1FF3B7B19467B7B4F
:101650001A46BB7B24480EF061F93B7C19462348AF
:101660000EF05CF9BB7D1946FB7D1A463B7E204897
:101670000EF054F91F480EF051F9786800F070F838
:101680002DE01D480EF04AF9786800F043F826E096
:101690001A480EF0B3F9FB6902331968FB6902338B
:1016A0005B681A4616480EF039F918E0FB690233F8
:1016B0001B68194613480EF031F910E012480EF07D
:1016C0002DF90CE0FB6902331B6819460F480EF038
:1016D00025F904E00E480EF021F900E000BF00BF3C
:1016E0002037BD4680BD00BF3C1D0108601D0108BC
:1016F0007C1D0108941D0108B41D0108D81D0108B6
:10170000281E0108501E01088C1E0108B01E010889
:10171000EC1E010880B584B000AF78607B685B6820
:101720000B33FB60FB680233BB60BB681B78194658
:1017300008480EF0F3F8BB681B78002B03D106486D
:101740000EF05CF903E005480EF058F900BF1037C1
:10175000BD4680BD101F0108401F01087C1F010805
:1017600080B58AB000AF786007F1080300221A60E4
:101770005A609A60DA6000237B6200233B627B68D8
:101780005B680B33FB61FB690233BB61BB691B7890
:10179000002B28D11D480EF031F9FFF7DFFB0F2396
:1017A0003B727F23BB72FFF781FD7862796A18482C
:1017B0000EF0B4F87B6A9BB2BB82FFF769FD38621A
:1017C000396A14480EF0AAF83B6A9BB2FB8207F113
:1017D000080318460BF004FF02F0E8FB002101208B
:1017E0000DF02CF90EE0BB691B78012B06D10A48DD
:1017F0000EF094F87B6800221A7003E007480EF0A0
:101800008DF800BF2837BD4680BD00BFB41F01085A
:10181000D01F0108F41F0108142001084820010806
:1018200080B500AF002003F017FF012003F014FF84
:10183000022003F011FF012003F048FF00BF80BD2C
:1018400080B500AF0121002003F074FF01210120C9
:1018500003F070FF0121022003F06CFF00BF80BD88
:1018600080B584B000AF786004F0B8F8B8607B68E9
:10187000FB60FB68B3F1FF3F0AD004F0C7F80346F2
:101880001A46FB681344FB6002E0FFF77FFD30BFA0
:1018900004F0A4F80246BB68D31AFA689A42F4D856
:1018A00000BF00BF1037BD4680BD80B500AF4FF010
:1018B000FF300DF0F3F800BF80BD80B400AF00BF73
:1018C000BD465DF8047B704780B582B000AF78609C
:1018D000002140200DF000FA00BF0837BD4680BD52
:1018E00080B582B000AF786002200DF061FA00BFD1
:1018F0000837BD4680BD80B582B000AF7860022059
:101900000DF076FA00BF0837BD4680BD80B582B0C5
:1019100000AF0346FB80FB88102B06D0102B0DDC9C
:10192000012B05D0022B06D008E002F057FE06E09E
:1019300002F05AFE03E002F05FFE00E000BF00BFCD
:101940000837BD4680BD000080B500AF034B0122C3
:101950000349002000F010FF00BF80BD651900089A
:101960007802002080B500AF154B1B88FF2B1ED8D6
:10197000144B1B780D2B0FD1134914480DF0CEFFDB
:1019800000F028F80E4B00221A804FF480720021DC
:101990000D480EF049F90AE0094B1B885A1C91B218
:1019A000074A11801A46074B1978074B9954084B80
:1019B00001220449002000F0DFFE00BF80BD00BF0F
:1019C0008003002078020020800200207C20010893
:1019D0006519000880B500AF1C491D48FEF7D0FB13
:1019E0000346002B09D11B480EF008F81A4B1B4A7E
:1019F0001A60194804F02EFD26E019491448FEF734
:101A0000BFFB0346002B0AD116480DF0F7FF124B1F
:101A10004FF0B0521A60104804F01CFD14E0124957
:101A20000B48FEF7ADFB0346002B09D10F480DF024
:101A3000E5FF094B0E4A1A60074804F00BFD03E06E
:101A400003490C480DF06AFF00BF80BD8C200108DF
:101A5000800200209020010870020020040000167F
:101A6000982001089C200108A4200108A820010852
:101A700001000016B020010880B483B000AF786088
:101A8000064BD3F8802005497B681343C1F88030AA
:101A900000BF0C37BD465DF8047B70470008005856
:101AA00080B483B000AF7860054B1A6804497B6846
:101AB00013430B6000BF0C37BD465DF8047B7047D5
:101AC0000008005880B483B000AF0D4B9B6A9BB2F6
:101AD0007B600B4B9B6A9BB23B6005E03B687B6085
:101AE000074B9B6A9BB23B607A683B689A42F5D190
:101AF0003B6818460C37BD465DF8047B704700BF55
:101B00000028004080B485B000AF03460A46FB7150
:101B10001346BB71BA791D4913465B001344DB00C1
:101B20000B4415331B78FB73FB7B062B09D0FA7B28
:101B3000164913465B001344DB000B441433FA7957
:101B40001A70FA79114913465B001344DB000B4409
:101B50001533FA7B1A70FA790C4913465B0013446B
:101B6000DB000B441433BA791A70BA79074913466B
:101B70005B001344DB000B441533FA791A7000BF85
:101B80001437BD465DF8047B704700BF8403002016
:101B900080B485B000AF03460A46FB711346BB71A3
:101BA000294B1B78DBB2BA799A4232D0BA792749ED
:101BB00013465B001344DB000B4414331B78FB73A8
:101BC000FA7B224913465B001344DB000B441533B8
:101BD000FA791A70FA791D4913465B001344DB0049
:101BE0000B441533BA791A70FA79184913465B0019
:101BF0001344DB000B441433FA7B1A70BA7913498F
:101C000013465B001344DB000B441433FA791A705B
:101C100014E0FA790D4913465B001344DB000B44D2
:101C20001533BA791A70BA79084913465B00134420
:101C3000DB000B441433FA791A7000BF1437BD4629
:101C40005DF8047B704700BF14040020840300206B
:101C500080B584B000AF0346FB714E4B1B78DBB2FE
:101C6000062B18D14B4B1B78DAB24B4B1A70494AF2
:101C7000FB791370FA79494913465B001344DB0082
:101C80000B44153306221A70454B4FF0FF321A6091
:101C90000023FB8178E000F009F90346FB81FA7923
:101CA0003E4913465B001344DB000B4408331968BC
:101CB000FB89FA791944394813465B001344DB0069
:101CC000034408331960FA79344913465B0013441E
:101CD000DB000B4408331B68BB602E4B1B78DBB268
:101CE00019462E4A0B465B000B44DB0013440833B5
:101CF0001B68BA689A4237D3264B1B787B737A7B72
:101D0000264913465B001344DB000B4415331B7854
:101D10003B7313E07A7B214913465B001344DB00DD
:101D20000B4415331B787B737A7B1C4913465B008D
:101D30001344DB000B4415331B783B733B7B062BB2
:101D40000BD03A7B154913465B001344DB000B4470
:101D500008331B68BA689A42DCD27A7BFB79114659
:101D60001846FFF7CFFE0FE00A4B1B78DAB2FB797B
:101D700011461846FFF70CFF064B1B78DAB2064BEC
:101D80001A70044AFB791370FB8918461037BD4658
:101D900080BD00BF1404002015040020840300202F
:101DA0001804002080B485B000AF03460A46FB71DA
:101DB0001346BB71394B1B78DBB2FA799A4211D1C9
:101DC000364B1B78DAB2364B1A70FA79354913461E
:101DD0005B001344DB000B4415331B78DAB22F4B46
:101DE0001A703EE0FA792F4913465B001344DB007A
:101DF0000B4414331B78FB73FA792A4913465B00B2
:101E00001344DB000B4415331B78BB73F979FA7B61
:101E100024480B465B000B44DB00034415331B785E
:101E2000D8B2204913465B001344DB000B44153342
:101E300002461A70BB7B062B13D0F979BA7B19487E
:101E40000B465B000B44DB00034414331B78D8B211
:101E5000144913465B001344DB000B441433024661
:101E60001A70FA790F4913465B001344DB000B44E8
:101E70000C3301221A70094B1B78DBB2062B07D1F9
:101E8000BB79002B04D1084B4FF0FF321A6000BF22
:101E900000BF1437BD465DF8047B70471404002072
:101EA00015040020840300201804002080B582B0AF
:101EB00000AF1A4B1B68B3F1FF3F26D0FFF702FEBD
:101EC0007860164B1B687A689A4205D8134B1A68DB
:101ED0007B68D31A7B600AE0114B1B881A467B682B
:101EE000D31A3B600D4B1B683A6813447B600D4B63
:101EF0001B781A467B6802FB03F37B600A4B1B7856
:101F00001A467B68D3407B6001E000237B607B68DE
:101F10009BB218460837BD4680BD00BF180400209C
:101F2000200400201E0400201D04002080B582B083
:101F300000AF0346FB80FB88002B08D1FFF7C2FDF2
:101F40000346214A1360032003F0F5FE39E0FB88C5
:101F5000012B03D81D4B1B78012B02D0FB88013BC2
:101F6000FB8000BF1A4B1B68DB6803F00403002BE7
:101F7000F8D0174B1B68DB68DAB2154B1B6862F4AC
:101F80009062DA60134B4FF40022DA60032003F012
:101F9000E0FE114B5B691B0C1B04FA880E491343CE
:101FA0004B61FFF78FFD0346074A1360084B1B6820
:101FB0009A68074B1B6842F480629A60AFF3008016
:101FC00000BF0837BD4680BD180400201D04002056
:101FD00014070020000800580028004080B584B095
:101FE00000AF454B9B6803F48063B3F5806F07D166
:101FF00000BF424B1B68DB6803F00403002BF8D1E1
:102000003E4B1B689A683D4B1B6822F480629A60C5
:102010003B4B1B78FB73FA7B3A4913465B00134436
:10202000DB000B4408331B68BB60FFF73FFF034630
:10203000FB80FB88BA689A4205D20023BB81324BF1
:1020400001221A704DE0FB88304A128892B2134484
:102050001A46BB68934206D92C4B1B88BB812A4B7E
:1020600000221A703DE0BB689AB2FB88D31ABB818C
:10207000254B01221A7034E0FA7B224913465B009B
:102080001344DB000B4408331A68FB889A420AD2D7
:10209000FA7B1C4913465B001344DB000B440833F6
:1020A00000221A6013E0FA7B164913465B001344C2
:1020B000DB000B4408331968FB88FA7BC91A114806
:1020C00013465B001344DB00034408331960FA7BBA
:1020D0000C4913465B001344DB000B4415331B789B
:1020E000FB73FB7B062BC7D1BB891846FFF71EFF8E
:1020F00000BF1037BD4680BD0028004014070020F7
:1021000014040020840300201C040020220400206A
:1021100080B58AB000AFEFF310837B617B697B628F
:1021200072B600BF594B1B68CA225A62574B1B68D4
:1021300053225A62554B1B689A68544B1B6822F411
:1021400080629A60524B1B7887F8233097F82320DF
:10215000504913465B001344DB000B440C331B78DF
:10216000DBB2022B6ED197F823204A4913465B005D
:102170001344DB000B441B68FB6197F8232045499F
:1021800013465B001344DB000B4410331B68BB6138
:10219000414B1B78DBB2002B4CD097F823203D49F4
:1021A00013465B001344DB000B440D331B78DBB29A
:1021B000012B24D197F8233001211846FFF7F2FDB7
:1021C0007B6A3B613B6983F3108800BF97F823204B
:1021D000304913465B001344DB000B4404331A6898
:1021E00097F823301146184600F032FA274B1B6847
:1021F000CA225A62254B1B6853225A6212E07B6A3C
:10220000FB60FB6883F3108800BF97F82330184603
:1022100000F09AF91D4B1B68CA225A621B4B1B68BF
:1022200053225A6297F82330FA691946B86900F0C8
:1022300095FA22E0FFF7D2FE7B6ABB60BB6883F3AE
:1022400010881AE000BF114B1B68DB6803F0040321
:10225000002BF8D00D4B1B68DB68DAB20B4B1B6808
:1022600062F49062DA600D4B4FF40022DA607B6A10
:102270007B607B6883F3108800BF044B1B68FF22E0
:102280005A6200BF2837BD4680BD00BF140700203A
:1022900014040020840300201C04002000080058BF
:1022A00080B588B000AF03463960FB715E4B1B6898
:1022B000CA225A625C4B1B6853225A625B4B9B6872
:1022C0005A4A43F020039360584B9B68DBB203F0FB
:1022D0000703DBB2C3F10403DAB2554B1A70534B58
:1022E0001B6903F4FE034FF4FE023A613A6992FA65
:1022F000A2F2FA60FA687A617A69002A01D1202292
:1023000003E07A69B2FA82F2D2B2D340DBB201338F
:10231000DAB2484B1A70454B1B699BB2C3F30E03EC
:102320009BB201339AB2444B1A80434B1B88013B4A
:10233000404A127802FB03F3A3F5A0733C4A1278DB
:10234000D340BB61BB694FF6FE72934204D93B4B4D
:102350004FF6FF721A8003E0BB699AB2374B1A80BE
:102360004FF40020FFF79CFB4FF40020FFF784FBA5
:10237000FB79002B3DD1324B01221A70314B4FF0CB
:10238000FF321A600023FB770CE0FA7F2E491346D8
:102390005B001344DB000B440C3300221A70FB7FFC
:1023A0000133FB77FB7F052BEFD9284B06221A70F0
:1023B0001D4B1B689A681C4B1B6822F480629A6054
:1023C000194B1B68DB68DAB2174B1B6862F490622A
:1023D000DA601F4B4FF40022DA60032003F0B9FCEF
:1023E000114B1B689A68104B1B6842F480429A603C
:1023F00009E00D4B1B68DB6803F48063002B02D0FF
:10240000032003F098FC084B1B68FF225A6200224D
:102410000321032003F04DFC032003F064FC00BF04
:102420002037BD4680BD00BF1407002000280040B3
:102430001D0400201E04002020040020220400208F
:102440001C04002018040020840300201404002031
:102450000008005880B48BB000AFF860B9603B60F2
:102460001346FB71002387F82630EFF31083FB61DE
:10247000FB693B6272B600BF04E097F82630013377
:1024800087F8263097F82630052B0CD897F82620A9
:102490002C4913465B001344DB000B440C331B78C0
:1024A000DBB2002BE9D197F82630062B38D097F80D
:1024B0002620244913465B001344DB000B440C33F5
:1024C00001221A703B6ABB61BB6983F3108800BFAD
:1024D00097F826201B4913465B001344DB000B448E
:1024E0001033FA681A6097F82620164913465B00E5
:1024F0001344DB000B440D33FA791A7097F8262049
:10250000104913465B001344DB000B443A681A6021
:10251000BB6897F826201A70002387F8273008E058
:102520003B6A7B617B6983F3108800BF012387F8D6
:10253000273097F8273018462C37BD465DF8047BC6
:10254000704700BF8403002080B586B000AF03460B
:10255000FB71EFF31083FB60FB687B6172B600BF19
:10256000032003F0CEFB344B1B68CA225A62324B65
:102570001B6853225A62FA79304913465B001344B0
:10258000DB000B440C331B78DBB2022B42D1FB790E
:1025900000211846FFF706FC294B1B78FB74FB7CD7
:1025A000062B2FD1274B9B6803F48063B3F5806F14
:1025B00007D100BF204B1B68DB6803F00403002B2E
:1025C000F8D11D4B1B689A681B4B1B6822F4806274
:1025D0009A6000BF184B1B68DB6803F00403002BF4
:1025E000F8D0154B1B68DB68DAB2134B1B6862F43A
:1025F0009062DA60144B4FF40022DA60032003F09B
:10260000A8FB07E0114B1B78DBB2FA7C9A4201D0A1
:10261000FFF7E4FC084B1B68FF225A62032003F01B
:1026200062FB7B69BB60BB6883F3108800BF00BF9F
:102630001837BD4680BD00BF14070020840300206A
:102640001404002000280040000800581504002051
:1026500080B586B000AF03463960FB71FA793B491B
:1026600013465B001344DB000B440C331B78DBB2D6
:10267000022B03D1FB791846FFF766FFEFF31083B7
:10268000FB60FB687B6172B600BF032003F039FB7F
:102690002F4B1B68CA225A622D4B1B6853225A6269
:1026A000FA792A4913465B001344DB000B440C33D0
:1026B00002221A70FA79254913465B001344DB00A5
:1026C0000B4408333A681A60FA79204913465B00D4
:1026D0001344DB000B4404333A681A60FB79184654
:1026E000FFF7B6FA03467B821A4B1B787B741A4BB2
:1026F0001B78DBB27A7C9A4202D0FFF76FFC13E0C2
:10270000FA79124913465B001344DB000B4408338B
:1027100019687B8AFA79C91A0C4813465B0013447E
:10272000DB00034408331960094B1B68FF225A621F
:10273000032003F0D8FA7B69BB60BB6883F3108881
:1027400000BF00BF1837BD4680BD00BF8403002016
:1027500014070020140400201504002080B584B064
:1027600000AFF8600B467A60FB727B68984700BF49
:102770001037BD4680BD000080B584B000AFB960A1
:102780007B600346FB731346BB81FB7B002B02D0AF
:10279000022B0DD019E00F4A7B6813600E4B0F4AD5
:1027A0001A60BB891A46B9680B4806F097FF0CE01F
:1027B0000B4A7B6813600B4B0B4A1A60BB891A46A5
:1027C000B968084806F08AFF00BF00BF1037BD4651
:1027D00080BD00BF24040020AC050020003801406B
:1027E0002C040020180500200080004080B586B031
:1027F00000AFB9607B600346FB731346BB810023C7
:10280000FB750023BB75FB7B002B02D0022B0FD086
:102810001DE01F4A7B6813601E4B1F4A1A60BB896C
:102820001A46B9681B4806F0A5FF0346FB750EE083
:102830001A4A7B6813601A4B1A4A1A60BB891A46F7
:10284000B968174806F096FF0346FB7500BFFB7D8D
:10285000032B17D801A252F823F000BF6D280008FF
:1028600073280008792800087F2800080023BB751A
:1028700009E00123BB7506E00223BB7503E00323D7
:10288000BB7500E000BFBB7D18461837BD4680BD54
:1028900028040020AC05002000380140300400204E
:1028A000180500200080004080B582B000AF78603D
:1028B0007B681B680F4A93420AD00F4A93420FD19C
:1028C0000E4B1B68002B0DD00C4B1B68984709E082
:1028D0000B4B1B68002B07D0094B1B68984703E084
:1028E00000BF02E000BF00E000BF00BF0837BD46E8
:1028F00080BD00BF0080004000380140240400205B
:102900002C04002080B582B000AF78607B681B6823
:102910000F4A93420AD00F4A93420FD10E4B1B68C5
:10292000002B0DD00C4B1B68984709E00B4B1B6824
:10293000002B07D0094B1B68984703E000BF02E05B
:1029400000BF00E000BF00BF0837BD4680BD00BF2C
:10295000008000400038014028040020300400209E
:1029600080B483B000AF78604FF0B043D3F89030BC
:1029700023F018024FF0B0417B681343C1F8903048
:1029800000BF0C37BD465DF8047B704780B485B04E
:1029900000AF78604FF0B0439A6C4FF0B0417B6865
:1029A00013438B644FF0B0439A6C7B681340FB6019
:1029B000FB6800BF1437BD465DF8047B704780B4E8
:1029C00085B000AF78604FF0B043DA6C4FF0B041A3
:1029D0007B681343CB644FF0B043DA6C7B681340E1
:1029E000FB60FB6800BF1437BD465DF8047B704791
:1029F00080B483B000AF0346FB710B46BB71134636
:102A00007B71FB79172B01D90023FB71BB793B2B21
:102A100001D90023BB717B793B2B01D900237B714A
:102A2000094AFB791370094ABB791370084A7B790C
:102A30001370084B1B680133064A136000BF0C3744
:102A4000BD465DF8047B70477807002079070020B9
:102A50007A0700207C07002080B584B000AF0346D1
:102A60000A46FB711346BB71FB79172B01D9002372
:102A7000FB71BB793B2B01D90023BB71184AFB7951
:102A80001370184ABB791370174B01221A70174B39
:102A900000221A70002240214FF0904003F084FE83
:102AA0000023FB6014E0012240214FF0904003F02E
:102AB0007BFE9620FEF7D4FE002240214FF090408E
:102AC00003F072FE9620FEF7CBFEFB680133FB603D
:102AD000FB68022BE7DD00BF00BF1037BD4680BD9D
:102AE00008000020800700208107002082070020C6
:102AF00080B500AF012208214FF0904003F054FE52
:102B00000120FEF7ADFE002208214FF0904003F0B7
:102B10004BFE00BF80BD80B582B000AF0346FB71A5
:102B2000FB7903F00103DBB21A4620214FF09040FD
:102B300003F03AFEFB795B10DBB203F00103DBB27A
:102B40001A4601214FF0904003F02EFEFB799B10B6
:102B5000DBB203F00103DBB21A4602214FF09040D2
:102B600003F022FEFB79DB10DBB203F00103DBB2E2
:102B70001A4610214FF0904003F016FE00BF0837B0
:102B8000BD4680BD80B582B000AF03460A46FB71EA
:102B90001346BB71BB79002B14BF01230023DBB2AA
:102BA0001A4604214FF0904003F0FEFDFB791B090B
:102BB000DBB21846FFF7AFFFFFF79AFFFB7903F090
:102BC0000F03DBB21846FFF7A6FFFFF791FF00BF28
:102BD0000837BD4680BD80B582B000AF0346FB71AB
:102BE000FB7900211846FFF7CDFF00BF0837BD462F
:102BF00080BD80B582B000AF0346FB71FB79012137
:102C00001846FFF7BFFF00BF0837BD4680BD80B53F
:102C100000AF3220FEF724FE0320FFF77CFFFFF712
:102C200067FF0520FEF71CFE0320FFF774FFFFF788
:102C30005FFF0520FEF714FE0320FFF76CFFFFF790
:102C400057FF0520FEF70CFE0220FFF764FFFFF799
:102C50004FFF0520FEF704FE2820FFF7BCFF0820E9
:102C6000FFF7B9FF0120FFF7B6FF0220FEF7F8FDDE
:102C70000620FFF7B0FF0C20FFF7ADFF00BF80BDBF
:102C800080B584B000AF03460A46FB711346BB71A2
:102C90000A4BFB60BB7910333B4413F8042CFB79DF
:102CA0001344DBB25BB263F07F035BB2DBB2184666
:102CB000FFF791FF00BF1037BD4680BD00401454A0
:102CC00080B582B000AF786006E07B685A1C7A60FD
:102CD0001B781846FFF78DFF7B681B78002BF4D11B
:102CE00000BF00BF0837BD4680BD000080B588B07A
:102CF00004AF03460A46FB8013467B717B799AB288
:102D0000F9884FF0FF3302930223019307F10C037C
:102D1000009301230A4803F065FF0346002B01D00E
:102D2000002308E03B7B1BB21B021AB27B7B1BB269
:102D300013431BB29BB218461037BD4680BD00BF7F
:102D40003404002080B588B004AF0346FB800B46F6
:102D50007B7113467B807B881B0A9BB2DBB23B7383
:102D60007B88DBB27B737B799AB2F9884FF0FF33B3
:102D700002930223019307F10C03009301230348FC
:102D800003F01CFE00BF1037BD4680BD3404002098
:102D900080B582B000AF164B7B60D7ED017A9FED16
:102DA000157A27EE877ADFED146AC6EE877AFCEE95
:102DB000E77A17EE903A7B8043F69F12002180203D
:102DC000FFF7C0FF7B881A4605218020FFF7BAFF76
:102DD00043F69F1200218220FFF7B4FF7B881A463A
:102DE00005218220FFF7AEFF00BF0837BD4680BD3A
:102DF00017B7D138CDCCCC3DACC5273D80B584B01C
:102E000000AF0346FB80FB8802211846FFF76EFFE8
:102E10000346FB81FB89DB08FB81FB8907EE903AC7
:102E2000F8EEE77A9FED047A67EE877AB0EE670AEC
:102E30001037BD4680BD00BF6F12833B80B584B0A4
:102E400000AF0346FB80FB8804211846FFF74EFFC6
:102E50000346FB81B7F90E3007EE903AF8EEE77AB9
:102E60009FED047A67EE877AB0EE670A1037BD46A9
:102E700080BD00BFCDCCCC3D80B582B000AF7860C6
:102E80007B68022B2DD07B68022B3CDC7B68002BFF
:102E900003D07B68012B12D035E0012201211E48AE
:102EA00003F082FC002202211B4803F07DFC00227B
:102EB0002021194803F078FC01237B6026E00022E2
:102EC0000121154803F070FC01220221124803F091
:102ED0006BFC00222021104803F066FC02237B607B
:102EE00014E0002201210C4803F05EFC00220221C4
:102EF000094803F059FC01222021074803F054FC43
:102F000000237B6002E000237B6000BF7B681846E3
:102F10000837BD4680BD00BF0004004880B592B0B0
:102F200002AF78607B68002B40F0AC80584B1B7878
:102F3000DBB20133DAB2564B1A70554B1B78DBB259
:102F40003B2B09D9524B00221A70524B1B78DBB233
:102F50000133DAB24F4B1A704E4B1B78DBB23B2B6E
:102F600014D94C4B00221A704B4B1B78DBB25A1C05
:102F70004A4B83FB02139910D317C91A0B465B0007
:102F80000B44DB00D11ACAB2434B1A70444B1B7876
:102F9000DBB2002B1DD0434B1B78DBB2002B18D1CA
:102FA0003D4B1B78DAB2404B1B78DBB29A4210D112
:102FB000384B1B78DAB23D4B1B78DBB29A4208D112
:102FC000012240214FF0904003F0EEFB354B0122EF
:102FD0001A70314B1B7887F837302E4B1B7887F8E7
:102FE0003630334B1B683B6397F83730002B05D1E5
:102FF0000C2387F83F302F4BBB631BE097F837302B
:103000000B2B06D897F8373087F83F30294BBB6336
:1030100010E097F837300C2B05D10C2387F83F30A0
:10302000254BBB6306E097F837300C3B87F83F3001
:10303000214BBB6307F11C003B6B204A11210CF0B4
:10304000E5FC97F83F1097F8363007F10800BA6BA7
:10305000019200930B461A4A11210CF0D7FC002173
:103060000020FFF70DFE07F11C031846FFF728FEAE
:1030700001210020FFF704FE07F108031846FFF7BF
:103080001FFE00E000BF7B6818464037BD4680BD8C
:103090007A0700207907002078070020ABAAAA2A27
:1030A0008107002082070020080000208007002000
:1030B0007C070020D0200108D4200108D820010876
:1030C000EC20010880B588B000AF78607B68002BE9
:1030D00046D12021254803F07FFB8020FFF78EFE9C
:1030E00087ED070A8020FFF7A9FE87ED060A8220F8
:1030F000FFF784FE87ED050A8220FFF79FFE87ED2C
:10310000040AD7ED077A9FED1A7A67EE877AFDEE0B
:10311000E77A17EE903AFB81D7ED067AFDEEE77A73
:1031200017EE903ABB81D7ED057A9FED117A67EEE5
:10313000877AFDEEE77A17EE903A7B81D7ED047A35
:10314000FDEEE77A17EE903A3B81B7F90830B7F910
:103150000A20B7F90C10B7F90E0001F00FFF00E0DC
:1031600000BF7B6818462037BD4680BD000400487C
:1031700000007A4480B584B000AF78607B68002B93
:1031800010D180214FF0904003F0F6FA0346FB7314
:10319000FB7B012B05D1002240214FF0904003F032
:1031A00003FB00BF7B6818461037BD4680BD00009A
:1031B00080B582B000AF584B00221A604FF47A728B
:1031C000554B5A60544B00229A60534B534ADA6075
:1031D000514B00221A614FF47A724F4B5A614E4B99
:1031E00000229A614C4B4E4ADA614B4B00221A6224
:1031F0004FF47A72484B5A62474B00229A62464B10
:10320000484ADA62444B00221A630A22424B5A634C
:10321000414B00229A63404B434ADA6302F070FB51
:10322000FEF7F4F800F086F800F0E2F800F080F91C
:1032300000F050FA00F030FA00F0FAF900F0E2F98C
:1032400000F0F6F800F034F900F0D4F9FFF7DFFCF5
:10325000FFF79EFD002240214FF0904003F0A4FABA
:10326000C820FEF7FDFA012240214FF0904003F004
:103270009BFAC820FEF7F4FA002240214FF090405C
:1032800003F092FA00210020FFF7FAFC2748FFF72D
:1032900017FD01210020FFF7F3FC2548FFF710FD83
:1032A000FEF7C2F8FEF701FB02F098FB386000233E
:1032B0007B602CE0184A7B681B01134408331B68B1
:1032C0003A68D21A14497B681B010B4404331B680B
:1032D0009A4219D3104A7B681B0113440C331B68B4
:1032E0000D497A6812010A4412681046984702464E
:1032F00009497B681B010B441A60074A7B681B0164
:10330000134408333A681A607B6801337B600422F7
:103310007B689342CED3C5E738070020792E00089A
:103320001D2F0008C5300008753100080021010874
:103330001021010880B59AB000AF07F120034822A0
:10334000002118460CF070FC3B1D00221A605A60E8
:103350009A60DA601A615A619A6104F03DF90020BE
:10336000FFF7FEFA214B1B6823F4C0631F4A43F4A6
:10337000007313601D4B1B6803F4C0633B603B6824
:1033800047233B624FF480337B620123BB624FF4DF
:103390008073FB620123BB6440233B630023FB6417
:1033A00007F12003184604F0ABFC0346002B01D0C4
:1033B00000F010FA6F237B600223BB600023FB60E8
:1033C00000233B6100237B610023BB610023FB6181
:1033D0003B1D0121184605F007F80346002B01D0DC
:1033E00000F0F8F900BF6837BD4680BD0004005802
:1033F00080B594B000AF3B465022002118460CF037
:1034000013FC4FF440533B604FF480437B64022332
:10341000BB641023FB643B46184605F022FC0346C0
:10342000002B01D000F0D6F900BF5037BD4680BD5B
:1034300080B500AF1B4B1C4A1A601A4B1B4A5A60DE
:10344000184B00229A60174B0122DA60154B0022BC
:103450001A61144B00225A61124B00229A61114BDF
:103460000022DA610F4B00221A620E4803F00AFABA
:103470000346002B01D000F0ADF90021094803F00C
:103480008DFF0346002B01D000F0A4F90021054870
:1034900003F0CFFF0346002B01D000F09BF900BFE3
:1034A00080BD00BF3404002000540040B47CB00054
:1034B00080B500AF1B4B1C4A1A601A4B1B4A5A605E
:1034C000184B00229A60174B0122DA60154B00223C
:1034D0001A61144B00225A61124B00229A61114B5F
:1034E0000022DA610F4B00221A620E4803F0CAF97B
:1034F0000346002B01D000F06DF90021094803F0CC
:103500004DFF0346002B01D000F064F9002105486F
:1035100003F08FFF0346002B01D000F05BF900BFE2
:1035200080BD00BF88040020005C0040B47CB00077
:1035300080B500AF064B074A1A60054803F0C6FF86
:103540000346002B01D000F045F900BF80BD00BF4D
:10355000DC040020000C005880B500AF234B244A47
:103560001A60224B4FF4E1325A60204B00229A60DD
:103570001E4B0022DA601D4B00221A611B4B0C22ED
:103580005A611A4B00229A61184B4FF40042DA61DB
:10359000164B00221A62154B00225A62134B00226E
:1035A0009A62124806F04AF80346002B01D000F058
:1035B00011F900210D4808F0BAF80346002B01D09C
:1035C00000F008F90021094808F0EFF80346002B45
:1035D00001D000F0FFF8054808F070F80346002B12
:1035E00001D000F0F7F800BF80BD00BFAC0500209F
:1035F0000038014080B400AF00BFBD465DF8047BD9
:103600007047000080B500AF074B084A1A60064BB0
:1036100000225A60044805F0ABFD0346002B01D0A0
:1036200000F0D8F800BF80BD00070020001000584F
:1036300080B500AF164B174A1A60154B00225A602E
:10364000134B0F229A60124B47F6FF72DA60104B51
:1036500000221A610E4B00229A610D4B0022DA61A2
:103660000B4B00225A610A4805F0B7FD0346002BB8
:1036700001D000F0AFF800220021054805F0BCFEA3
:103680000346002B01D000F0A5F800BF80BD00BFAD
:10369000140700200028004080B500AF0420FFF789
:1036A00075F90120FFF772F90220FFF76FF9002288
:1036B0000F210E2002F0FDFA0E2002F014FB002272
:1036C0000F213A2002F0F5FA3A2002F00CFB00BF7D
:1036D00080BD000080B586B000AF3B1D00221A609F
:1036E0005A609A60DA601A610420FFF768F90220D4
:1036F000FFF765F90120FFF762F980237B60002363
:10370000BB600223FB6000233B613B1D19464FF069
:10371000904002F0C1FE002240214FF0904003F0A3
:1037200043F840237B600123BB600023FB60002340
:103730003B613B1D19464FF0904002F0ADFE002268
:103740002021234803F030F820237B600123BB6055
:103750000023FB6000233B613B1D19461C4802F01F
:103760009BFE002204214FF0904003F01DF8002240
:1037700008214FF0904003F017F8002220214FF06D
:10378000904003F011F8002201214FF0904003F027
:103790000BF8002202214FF0904003F005F80022C0
:1037A00010214FF0904002F0FFFF3F237B60012388
:1037B000BB600023FB6000233B613B1D19464FF0BB
:1037C000904002F069FE00BF1837BD4680BD00BFC3
:1037D0000004004880B400AF72B600BF00BFFDE730
:1037E00080B400AF4FF0B043D3F890304FF0B04208
:1037F00043F40043C2F8903000BFBD465DF8047B3F
:10380000704780B485B000AF78604FF0B043DA6C99
:103810004FF0B0417B681343CB644FF0B043DA6C98
:103820007B681340FB60FB6800BF1437BD465DF842
:10383000047B704780B485B000AF78604FF0B04330
:103840001A6D4FF0B0417B6813430B654FF0B043E6
:103850001A6D7B681340FB60FB6800BF1437BD46E0
:103860005DF8047B704780B485B000AF78604FF09E
:10387000B0439A6D4FF0B0417B6813438B654FF0B6
:10388000B0439A6D7B681340FB60FB6800BF143740
:10389000BD465DF8047B704780B485B000AF7860AA
:1038A0004FF0B043DA6D4FF0B0417B681343CB6506
:1038B0004FF0B043DA6D7B681340FB60FB6800BFDC
:1038C0001437BD465DF8047B704780B485B000AF07
:1038D00078604FF0B0431A6E4FF0B0417B681343ED
:1038E0000B664FF0B0431A6E7B681340FB60FB68B9
:1038F00000BF1437BD465DF8047B704780B500AF4C
:103900004FF40020FFF796FF002200212E2002F046
:10391000D0F92E2002F0E7F900BF80BD80B59CB041
:1039200000AF786007F15C0300221A605A609A6069
:10393000DA601A6107F10C035022002118460CF0DE
:1039400073F97B681B682D4A934227D10423FB60DF
:103950004FF44033FB6207F10C03184605F081F980
:103960000346002B01D0FFF735FF0220FFF749FF88
:103970004FF44073FB6512233B6600237B660023F4
:10398000BB660423FB6607F15C0319461C4802F082
:1039900083FD4FF40010FFF766FF2AE07B681B6889
:1039A000184A934225D10823FB604FF440133B6330
:1039B00007F10C03184605F054F90346002B01D01B
:1039C000FFF708FF0420FFF71CFF0323FB6512230A
:1039D0003B6600237B660023BB660423FB6607F17E
:1039E0005C031946084802F057FD4FF40000FFF74A
:1039F0003AFF00BF7037BD4680BD00BF0054004095
:103A000000040048005C00400008004880B582B017
:103A100000AF78607B681B680D4A934213D14FF466
:103A20008010FFF707FF002200212C2002F041F94F
:103A30002C2002F058F9002200212D2002F039F943
:103A40002D2002F050F900BF0837BD4680BD00BFF1
:103A5000000C005880B5A0B000AF786007F16C038F
:103A600000221A605A609A60DA601A6107F10C034A
:103A70005022002118460CF0D7F87B681B68684A72
:103A800093426ED10223FB600023BB6207F10C035B
:103A9000184605F0E6F80346002B01D0FFF79AFE22
:103AA0000120FFF7F9FE0120FFF7ABFE0C23FB66B8
:103AB00002233B6700237B670323BB670823FB6765
:103AC00007F16C0319464FF0904002F0E5FC554BAE
:103AD000554A1A60534B11225A60524B10229A6079
:103AE000504B0022DA604F4B80221A614D4B00226E
:103AF0005A614C4B00229A614A4B0022DA61494BD1
:103B000000221A62474802F033F90346002B01D025
:103B1000FFF760FE4FF08853FB6500233B660023F0
:103B200087F86430002387F865300123BB6607F10E
:103B30005C0319463B4802F04DFC0346002B01D0C4
:103B4000FFF748FE7B68374ADA67364A7B6893623C
:103B500000220021252002F0ACF8252002F0C3F855
:103B60005AE07B681B68314A934255D10123FB60C0
:103B700000237B6207F10C03184605F072F8034638
:103B8000002B01D0FFF726FE4FF48040FFF79DFE8B
:103B90000220FFF736FEC023FB6602233B670123AA
:103BA0007B670323BB670723FB6707F16C03194699
:103BB0001F4802F071FC1F4B1F4A1A601D4B0F2259
:103BC0005A601C4B10229A601A4B0022DA60194B83
:103BD00080221A61174B00225A61164B00229A610B
:103BE000144B0022DA61134B00221A62114802F0D2
:103BF000BFF80346002B01D0FFF7ECFD7B680D4AB0
:103C0000DA670C4A7B68936200220021242002F0CC
:103C100050F8242002F067F800BF8037BD4680BD11
:103C2000008000404006002044000240003801406F
:103C300000040048A00600204404024080B596B06D
:103C400000AF786007F108035022002118460BF0FE
:103C5000EBFF7B681B680D4A934213D14FF400734E
:103C6000BB604FF080533B6407F10803184604F033
:103C7000F8FF0346002B01D0FFF7ACFD4FF4802086
:103C8000FFF7D8FD00BF5837BD4680BD0010005873
:103C900080B596B000AF786007F10803502200218C
:103CA00018460BF0C1FF7B681B68144A934220D171
:103CB0004FF40063BB604FF48073BB6407F10803EB
:103CC000184604F0CEFF0346002B01D0FFF782FD1B
:103CD000FFF786FD4FF48060FFF7C5FD002200214D
:103CE000032001F0E6FF032001F0FDFF786805F0F6
:103CF0004FFC00BF5837BD4680BD00BF00280040C4
:103D000080B400AF00BFBD465DF8047B704780B44F
:103D100000AF00BFFDE780B400AF00BFFDE780B497
:103D200000AF00BFFDE780B400AF00BFFDE780B487
:103D300000AF00BFBD465DF8047B704780B400AFA4
:103D400000BFBD465DF8047B704780B400AF00BF84
:103D5000BD465DF8047B704780B500AF01F02AFED8
:103D600000BF80BD80B500AFFEF7D2F900BF80BDB7
:103D700080B500AF024802F0DCF900BF80BD00BF93
:103D80004006002080B500AF024805F073FD00BF7B
:103D900080BD00BFAC05002080B500AF024805F033
:103DA00069FD00BF80BD00BF1805002080B500AFD1
:103DB00001F048FA00BF80BD80B500AF01F078FA8D
:103DC00000BF80BD80B500AF02F038FD00BF80BDF0
:103DD00080B500AF024802F0ACF900BF80BD00BF63
:103DE000A006002080B500AF102002F00FFD00BF3C
:103DF00080BD80B500AF012002F008FD00BF80BD8E
:103E000080B500AF022002F001FD00BF80BD80B48C
:103E100000AF01231846BD465DF8047B704780B5AE
:103E200082B000AF786039600BF050FF0346162275
:103E30001A604FF0FF3318460837BD4680BD80B585
:103E400082B000AF78604FF0FF317868FFF7E7FF8E
:103E500000BFFDE780B586B000AFF860B9607A605A
:103E600000237B610AE0AFF300800146BB685A1C67
:103E7000BA60CAB21A707B6901337B617A697B6868
:103E80009A42F0DB7B6818461837BD4680BD80B487
:103E900083B000AF78604FF0FF3318460C37BD4653
:103EA0005DF8047B704780B483B000AF7860396000
:103EB0003B684FF400525A60002318460C37BD4649
:103EC0005DF8047B704780B483B000AF7860012355
:103ED00018460C37BD465DF8047B704780B485B04A
:103EE00000AFF860B9607A60002318461437BD4609
:103EF0005DF8047B7047000080B586B000AF786045
:103F0000144A154BD31A7B617B693B61134B1B68C9
:103F1000002B02D1114B124A1A60104B1A687B68B1
:103F200013443A699A4207D20BF0D0FE03460C22A2
:103F30001A604FF0FF3309E0084B1B68FB60074B2A
:103F40001A687B681344054A1360FB6818461837E3
:103F5000BD4680BD00000320001000008407002043
:103F6000B01A002080B400AF034B1B681846BD4652
:103F70005DF8047B704700BF8075FF1F80B400AF01
:103F8000034B1B68DBB21846BD465DF8047B7047E7
:103F90008475FF1F80B400AF034B1B681B0A1846D3
:103FA000BD465DF8047B70478475FF1FB0B590B0C7
:103FB00000AF922387F83F303F4B3C1D1D460FCD8D
:103FC0000FC40FCD0FC40FCD0FC495E8070003C475
:103FD000228000F019FB012102200AF02FFD374A50
:103FE000002104200AF056FE3B1D184609F0CAFACB
:103FF000034687F83E3097F83E30002B08D097F8FC
:104000003E3019462E480BF089FCFFF7E3FB02E037
:104010002C480BF083FC00F00DFB0AF00FFA2A4B42
:10402000002283F88020284B4FF6FF72DA82274A5D
:10403000002101200AF02EFE254A002102200AF06C
:1040400029FE062008F0C6FC034687F83F3097F8A3
:104050003F30002B06D097F83F3019461D480BF033
:104060005DFC02E01C480BF059FC1C4B00221A704E
:104070001B4B01221A7000F049FF1A4B00221A490B
:104080000020FEF7E7F9194B002219490020FEF73E
:10409000E1F90D4B00225A760B4B00221A76154B94
:1040A00080221A80144BA0221A80012000F072FC9A
:1040B00000BF4037BD46B0BDFC2101089DCF0008C0
:1040C000202101085821010890070020754B0008A5
:1040D000BD4C000880210108C42101081C080020F3
:1040E0001D080020D54B000811080020E54B0008F2
:1040F000120800201408002016080020B0B590B067
:1041000004AF7860922387F82F307B680133BB625D
:10411000BB6A1B78FF2B00F02081FF2B00F32A8263
:10412000052B02D03E2B2ED024E2BB6A0233FB606B
:10413000FB68B3F801309AB2AC4BDB8A9A4214D1D7
:10414000AA4B0022DA82A94B002283F88020A848DB
:104150000BF054FCFB68B3F801309BB21946FB68C6
:10416000DB781A46A3480BF0D9FB012000F012FCC3
:10417000A14B01221A709D4BDA8A9F4B5A809E48B0
:1041800000F092FEF9E1BB6A0233FB61FB691B7828
:104190000C2B33D00C2B00F3DE80012B6CD0032BC7
:1041A00040F0D980FB6901337B6194480BF026FC19
:1041B0007B69B3F803309BB21846FCF79BF94FF0CC
:1041C00000028F4BFCF700FA02460B4610461946D8
:1041D0007B69B3F805309BB21C467B69B3F80730A6
:1041E0009BB21A4613469B0013445B000193009454
:1041F00002460B4683480BF091FBADE0FB690133AF
:10420000BB6181480BF08AFBBB691B78002B03D193
:104210007E480BF0F3FB02E07D480BF0EFFB734BA5
:10422000DB8A07F10A0207F10B01184608F04AFC85
:10423000034687F82F3097F82F30002B03D07548AE
:104240000BF06CFB88E074480BF0D8FBFB7A022B78
:104250000AD1BB7A022B07D1FB7A1946BB7A1A46E0
:104260006E480BF05BFB77E0FB7A1946BB7A1A4687
:104270006A480BF053FB6FE0FB6901333B615B4B1A
:1042800093F881301846FEF75FF93B69B3F80130C7
:104290009BB2194662480BF041FB3B699B7A18467A
:1042A0003B695B7A1C463B691B7A1D463B69DB799F
:1042B0001A463B699B7919463B695B7902930191E8
:1042C00000922B462246014656480BF027FB3B69DD
:1042D000B3F80B309BB21846FCF70CF94FF0000214
:1042E000474BFCF771F902460B46104619463B69ED
:1042F000B3F80D309BB21C463B69B3F80F309BB24C
:104300001A4613469B0013445B0001930094024637
:104310000B463C480BF002FB344B93F88030042BE7
:1043200004D1324B062283F8802003E02F4B052274
:1043300083F880203B69B3F801309AB22B4BDA82C4
:104340002D4B00221A70294BDA8A2B4B5A802A48AF
:1043500000F0AAFD00E000BF0FE1BB6A02337B6200
:104360007B6A1B889BB240F60E42934200F0F880B5
:1043700040F60E42934200F3FF80B3F5006F00F069
:10438000DC80B3F5006F00F3F780042B00F0DD80D4
:10439000042BC0F2F18040F20A42934200F3EC8019
:1043A000B3F5806FC0F2E880A3F580630A2B00F2BA
:1043B000E38001A252F823F0E54300080545000818
:1043C0002D44000863440008794500086B44000848
:1043D00079450008434500089F440008AF440008A1
:1043E000A744000810480BF009FBC2E0900700202A
:1043F000382201086422010818080020A0220108C0
:104400000000F43FD4220108402301087023010872
:104410007C23010888230108A8230108C823010878
:10442000EC230108342401088424010855480BF0CA
:10443000E5FA554BDB8A5549184607F079FC0346E7
:1044400087F82F3097F82F30002B06D097F82F30B1
:1044500019464F480BF062FA8BE04E480BF0CEFA4B
:1044600087E04D480BF0CAFA83E04C480BF0C6FADF
:10447000454BDB8A184607F005FE034687F82F30C8
:1044800097F82F30002B06D097F82F301946444864
:104490000BF044FA6DE043480BF0B0FA69E0424893
:1044A0000BF0ACFA65E041480BF0A8FA61E0404837
:1044B0000BF0A4FA7B6A0233D3F8023019463D4868
:1044C0000BF02CFA7B6A0233D3F8023019463A48D3
:1044D0000BF024FA2C4BDB8A0121184607F026FE4C
:1044E000034687F82F3097F82F30002B06D097F827
:1044F0002F30194631480BF011FA3AE030480BF0F2
:104500007DFA36E07B6A02333B622E480BF076FA86
:104510003B6A9B78002B03D12B480BF06FFA08E025
:104520003B6A9B7819463B6ADB781A4627480BF0B2
:10453000F5F90A200BF004FA1BE0254B01221A7052
:1045400017E024480BF0EAF913E0012001F0BEF86F
:104550000D4B93F882300A211846FEF779F808E0EF
:104560001D480BF0DBF9084BDB8A184608F0F1F820
:1045700000BF01E000BF00E000BF01231846303754
:10458000BD46B0BDB42401089007002040E2010000
:10459000DC240108102501083825010864250108DC
:1045A00088250108B8250108E02501080C26010826
:1045B0003C260108702601088C260108A426010863
:1045C000F42601083C270108682701088027010814
:1045D0001D080020BC270108E427010880B500AFB2
:1045E00000F0C4FC00BF80BD80B500AF00210220F8
:1045F0000AF072FB00BF80BD80B400AF00BFBD46B3
:104600005DF8047B7047000080B582B000AF064BB8
:104610003B60064B7B603B461946054808F0A2FC10
:1046200000BF0837BD4680BD28000320654D000847
:104630002D4D0008F0B58DB006AF00233B809223CE
:10464000FB75A5480BF0DAF908F018FA0346FB757C
:10465000FB7D002B05D0FB7D1946A0480BF05EF9D1
:1046600002E09F480BF0CAF900F040FA38613A695D
:104670000621002008F0C2F80346FB75FB7D002BE5
:1046800005D0FB7D194697480BF048F921E0964884
:104690000BF0B4F93B6905331B7818463B690433CA
:1046A0001B781C463B6903331B781D463B6902336C
:1046B0001B781A463B6901331B7819463B691B7806
:1046C0000293019100922B462246014687480BF047
:1046D00025F93B6905331A78854B1A723B69043317
:1046E0001A78834B5A723B6903331A78804B9A725B
:1046F0003B6902331A787E4BDA723B6901331A78D0
:104700007B4B1A733B691A78794B5A73794A10219B
:10471000182008F073F80346FB75FB7D002B05D0CD
:10472000FB7D194674480BF0F9F802E073480BF072
:1047300065F9734A1021082008F060F80346FB75FC
:10474000FB7D002B05D0FB7D19466E480BF0E6F88B
:1047500002E06D480BF052F91821012008F0D3F85F
:104760000346FB75FB7D002B05D0FB7D1946674892
:104770000BF0D4F802E066480BF040F907F03DFD7D
:104780000346FB75FB7D002B05D0FB7D1946614878
:104790000BF0C4F802E060480BF030F90023FB7323
:1047A000FB7B43F00103FB73FB7B002B2BD05B4BAC
:1047B000BB60BA1DF87BBB1C01933B1D00931346E5
:1047C0000722002107F01BFB0346FB75FB7D002B36
:1047D00005D0FB7D194652480BF0A0F802E0514885
:1047E0000BF00CF9FC88BD88B868FBF729FD03467F
:1047F000DAB2BB680093134600222946204607F030
:10480000FFFE0346FB75F88879883B460093022338
:10481000002207F0F5FE0346FB750222022100206C
:1048200008F0CEF90346FB75FB7D002B05D0FB7D20
:1048300019463D480BF072F802E03C480BF0DEF8F8
:104840003B4B01221A703A4B1B78184607F058F977
:104850000346FB75FB7D002B05D0FB7D19463548D3
:104860000BF05CF802E034480BF0C8F8304B012242
:104870005A702F4B08221A712D4B10225A712C4B53
:104880000022DA702A4B2D4A9A60294B01229A7035
:10489000274B9C78264B5D78254B1B79244A52790F
:1048A0002349C97822488068002604960390029123
:1048B00001920093002301222946204607F074F953
:1048C0000346FB75FB7D002B3CD0FB7D19461C4845
:1048D0000BF024F839E000BF0C2801083828010843
:1048E0006828010888280108EC28010840290108E7
:1048F00014000020483401087C290108D42901084B
:10490000583401081C2A0108742A0108BC2A01082D
:10491000FC2A01082C2B0108602B0108842B0108BC
:104920008C2B0108BC2B0108DC2B0108182C01087A
:1049300090070020442C0108842C010807B20100D4
:10494000B42C01080E480BF059F80E4B9B78002B45
:104950000FD007F073FB0346FB75FB7D002B05D0E2
:10496000FB7D194608480AF0D9FF02E007480BF022
:1049700045F807480AF0D2FF00BF1C37BD46F0BD1E
:10498000002D0108900700203C2D01087C2D010816
:10499000AC2D010880B58CB008AF0346FB719223A3
:1049A000FB72FB79012B06D1414B1B88FB81414BEC
:1049B0001B88BB8105E04FF4C863FB814FF47A6329
:1049C000BB813D4B93F881301846FDF7BDFDFB7967
:1049D000022B19D1384B93F88030012B04D0364B81
:1049E00093F88030022B0FD106F06CFF0346FB7268
:1049F000FB7A002B05D0FB7A194630480AF08EFF6F
:104A000002E02F480AF0FAFF2B4AFB7982F8803047
:104A1000294B1B7EBA89F989002006900020059059
:104A2000284804900393284B029308230193002302
:104A300000930023002006F069FF0346FB72FB7A17
:104A4000002B05D0FB7A194620480AF067FF02E0E8
:104A50001F480AF0D3FF1F490E2007F07DFA0346D6
:104A6000FB72FB7A002B0ED0FB79012B05D1FB7A70
:104A7000194619480AF052FF17E0FB7A1946174801
:104A80000AF04CFF11E0FB79012B0AD114480AF01F
:104A900045FF094B93F8813012491846FDF7D8FDC0
:104AA00003E011480AF03AFF00BF1037BD4680BD51
:104AB000140800201608002090070020D82D0108B7
:104AC000242E0108A9070020683401086C2E010873
:104AD000A42E010814000020CC2E0108002F01088C
:104AE000382F010846E00100602F010880B586B02C
:104AF00000AFFFF737FA38613B69B3F1FF3F23D0CE
:104B0000FFF748FAB860FFF739FA78603B69DAB224
:104B1000164B1A703B691B0ADAB2144B5A707B6849
:104B2000DAB2124B9A70BB68DAB2104BDA70BB681B
:104B30001B0ADAB20D4B1A71BB681B0CDAB20B4BB5
:104B40005A710A4B7B610BE0002008F0C7FBF8604C
:104B5000FB68002B02D0FB687B6101E0044B7B61AA
:104B60007B6918461837BD4680BD00BF8807002006
:104B70004034010880B582B000AF012000F0C0FDD4
:104B8000104B93F88030052B17D09223FB7106F061
:104B900099FE0346FB710B4B002283F88020FB79C2
:104BA000002B03D008480AF0B9FE06E007480AF0D7
:104BB000B5FE07480AF0B2FE00BF00BF0837BD4689
:104BC00080BD00BF90070020902F0108B42F01087E
:104BD000BC2F010880B500AF002101200AF07CF84D
:104BE00000BF80BD80B500AF012000F089FD00BF8F
:104BF00080BD000090B589B002AF0346FB80294B11
:104C00001B78012B49D1274B00221A70264B1B78A9
:104C10000133002B03F00103B8BF5B42DAB2224B31
:104C20001A70214B1B78214A9B00134493ED007AA4
:104C3000F7EE046AC7EE267AFDEEE77A17EE903AB1
:104C4000FB82194B1B78194A9B00134493ED007AA1
:104C5000F7EE046AC7EE267AFDEEE77A17EE903A91
:104C6000BB8200237B824FF4FA733B82104BD88ABD
:104C70007C8ABA8AF98A3B8A0093234608F01DF899
:104C80000346FB73FB7B002B03D00A480AF046FE69
:104C900003E009480AF042FE00BF00BF1C37BD46D2
:104CA00090BD00BF1D0800201C0800200C00002043
:104CB00090070020D82F01080030010880B500AF10
:104CC000084B93F88030012B0AD0064B93F88030C4
:104CD000002B05D0034BDB8A1846FFF78BFF00BF84
:104CE00000BF80BD9007002080B582B000AF786023
:104CF0000021042009F0F0FF00BF0837BD4680BD49
:104D000080B582B000AF786001200AF051F800BF92
:104D10000837BD4680BD80B582B000AF7860012005
:104D20000AF066F800BF0837BD4680BD80B584B084
:104D300000AF78607B68FB60FB685B6808331846EF
:104D400009F0CEFB0346FB72FB7A002B03D0FB6815
:104D500001221A7003E0FB6800221A7000BF1037AE
:104D6000BD4680BD80B584B000AF0346FB71FB79C2
:104D7000002B02D0012B06D00BE03F23FB60F8682C
:104D800009F0D6FF05E03F23FB60F86809F0F0FF6B
:104D900000BF00BF1037BD4680BD000080B586B0A3
:104DA00000AF78607B681B78032B1AD0032B66DC7E
:104DB000002B02D0012B0AD061E0334B01221A7084
:104DC00032480AF01BFE32480AF0A8FD58E02E4B8C
:104DD00000221A702F480AF011FE2D480AF09EFD9D
:104DE0004EE07B681B7A7B757B685B683B617B7DF3
:104DF000194629480AF092FD7B7D022B08D07B7D65
:104E0000194626480AF08AFD21480AF087FD37E056
:104E10003B691B78FB733B695B78FB75FB7BDB09AC
:104E2000BB73FB7B03F07F03BB75BB7D172B01D9E5
:104E30000023BB75FB7D3B2B01D90023FB75BB7B9E
:104E4000002B0CD1F97DBB7D00221846FDF7D0FD6B
:104E5000BB7DFA7D194612480AF060FD0BE0FA7D31
:104E6000BB7D11461846FDF7F7FDBB7DFA7D19465F
:104E70000C480AF053FD06480AF050FD00E000BF60
:104E800000BF1837BD4680BD200800203030010823
:104E900064300108683001089C300108C030010806
:104EA000F03001081831010880B582B000AF786099
:104EB0007B681B78002B02D0012B0ED01AE07B6898
:104EC0005A880E4BDA800D4BDB8819460C480AF0E5
:104ED00025FD0C480AF022FD0CE00B480AF08EFD7F
:104EE00008480AF01BFD054B4FF6FF72DA8000F010
:104EF00023F800BF00BF0837BD4680BD2008002052
:104F000040310108643001087C31010880B500AFF0
:104F1000074A0021082009F0BDFE064B00221A7046
:104F2000044B4FF6FF72DA8000F006F800BF80BD38
:104F3000D94F00082008002080B500AF002000F005
:104F4000DFFB08480AF05AFD074B01225A70064B56
:104F500000229A70044B0122DA70034B00221A716E
:104F600000BF80BDAC3101082008002080B500AF33
:104F70000021082009F0B0FE00BF80BD90B585B0CB
:104F800000AF0446084611461A462346FB800346F6
:104F9000BB800B467B8013463B800D4B1B78002B60
:104FA0000FD0FB883B81BB887B817B88BB813B88A2
:104FB000FB8107F1080319464FF6426008F0C0FA7A
:104FC00002E004480AF01AFD00BF1437BD4690BD48
:104FD00020080020F831010880B500AF0F4B1B7985
:104FE000002B03D10D4B01221A7102E00B4B002262
:104FF0001A710A4B1B78002B0BD009480AF08EFC63
:1050000008480AF08BFC08494FF6426008F098FA0D
:1050100003E006480AF082FC00BF80BD20080020A3
:105020003032010864300108230800207032010882
:1050300080B400AF054BDB68044A43F40043D360FF
:1050400000BFBD465DF8047B704700BF00040058F8
:1050500080B483B000AF7860064BD3F8D420054904
:105060007B681343C1F8D43000BF0C37BD465DF8F0
:10507000047B70470008005880B483B000AF7860AC
:10508000054B1A6A04497B6813430B6200BF0C3757
:10509000BD465DF8047B70470008005880B485B0B9
:1050A00000AF78604FF0B0431A6D4FF0B0417B68AD
:1050B00013430B654FF0B0431A6D7B681340FB60E0
:1050C000FB6800BF1437BD465DF8047B704780B4B1
:1050D00085B000AF78604FF0B043D3F850214FF067
:1050E000B0417B681343C1F850314FF0B043D3F85F
:1050F00050217B681340FB60FB6800BF1437BD463E
:105100005DF8047B704780B483B000AF78607B6843
:105110001B6843F480327B681A6000BF0C37BD46C1
:105120005DF8047B704780B483B000AF78607B6823
:105130001B6843F001027B681A6000BF0C37BD4654
:105140005DF8047B704780B483B000AF786039604D
:105150007B685A683B681B04DB431A407B685A60D3
:1051600000BF0C37BD465DF8047B704780B483B048
:1051700000AF786039607B685A683B681B041A434B
:105180007B685A6000BF0C37BD465DF8047B7047F2
:1051900080B483B000AF786039607B685A683B6840
:1051A000DB431A407B685A6000BF0C37BD465DF890
:1051B000047B704780B483B000AF786039607B684F
:1051C0003A689A6000BF0C37BD465DF8047B7047B3
:1051D00080B483B000AF786039603B681A047B68A4
:1051E0009A6000BF0C37BD465DF8047B704780B401
:1051F00083B000AF786039607B68DA683B68134041
:105200003A689A4201D1012300E0002318460C3786
:10521000BD465DF8047B704780B483B000AF786012
:1052200039607B68DA693B6813403A689A4201D179
:10523000012300E0002318460C37BD465DF8047BCF
:105240007047000080B500AF02211848FFF7E4FF67
:105250000346002B08D0154B5B6803F00203002BBC
:1052600002D100F025F91EE001211048FFF7D4FF1C
:105270000346002B08D00D4B5B6803F00103002BA5
:1052800002D100F099F80EE008210848FFF7C4FFAA
:105290000346002B08D0054B5B6803F00803002B86
:1052A00002D100F07DF900BF00BF80BD000C0058A6
:1052B00080B500AF02211848FFF799FF0346002B85
:1052C00008D1154B5B6803F40033002B02D100F0CA
:1052D000D3F81EE008211048FFF789FF0346002B92
:1052E00008D10D4B5B6803F40023002B02D100F0C2
:1052F00019F90EE020210848FFF779FF0346002B3B
:1053000008D1054B5B6803F40013002B02D100F0B9
:105310005FF800BF00BF80BD000C005880B500AF33
:105320004FF48010FFF7D3FE4FF40070FFF7A4FE98
:105330004FF40070FFF78CFE40BF20BFFFF778FEF0
:1053400000BF80BD80B500AF4FF48010FFF7A6FE10
:105350000648FFF7E8FE0548FFF7D5FE2C2000F0D1
:10536000C2FC2D2000F0BFFC00BF80BD000C005827
:1053700080B584B000AFEFF310837B607B68FB6087
:1053800072B600BF01210648FFF702FFFB68BB6051
:10539000BB6883F3108800BF00BF1037BD4680BDD7
:1053A000000C005880B500AF01210248FFF710FF44
:1053B00000BF80BD000C005880B500AF09F074F943
:1053C00001210248FFF7F6FE00BF80BD000C005827
:1053D00080B584B000AFEFF310837B607B68FB6027
:1053E00072B600BF20210748FFF7C0FEFB68BB6014
:1053F000BB6883F3108800BF09F086F900BF10373F
:10540000BD4680BD000C005880B584B000AFEFF3FE
:1054100010837B607B68FB6072B600BF0221064888
:10542000FFF7B6FEFB68BB60BB6883F3108800BF64
:1054300000BF1037BD4680BD000C005880B584B059
:1054400000AF02210B48FFF7C3FEEFF310837B6030
:105450007B68FB6072B600BF02210648FFF773FE4F
:10546000FB68BB60BB6883F3108800BF00BF1037C8
:10547000BD4680BD000C005880B584B000AFEFF38E
:1054800010837B607B68FB6072B600BF0221074817
:10549000FFF76CFEFB68BB60BB6883F3108800BF3E
:1054A00009F082F900BF1037BD4680BD000C0058DE
:1054B00080B500AF09F08EF902210248FFF77AFEAD
:1054C00000BF80BD000C005880B586B000AF78608A
:1054D00008211248FFF78BFE0346002B13D0104A19
:1054E0007B681360EFF31083FB60FB687B6172B62F
:1054F00000BF08210948FFF726FE7B693B613B6935
:1055000083F3108805E07B68984708210348FFF77C
:105510005FFE00BF1837BD4680BD00BF000C0058BD
:105520002808002080B584B000AFEFF310837B60C3
:105530007B68FB6072B600BF08210A48FFF716FEC1
:10554000FB68BB60BB6883F3108800BF064B1B6819
:10555000984708210348FFF73BFE00BF1037BD46C0
:1055600080BD00BF000C00582808002080B584B022
:1055700000AFEFF310837B607B68FB6072B600BF07
:1055800008210648FFF704FEFB68BB60BB6883F395
:10559000108800BF00BF1037BD4680BD000C00580A
:1055A00080B500AF09F0BEF908210248FFF702FEFE
:1055B00000BF80BD000C0058D458C4500433C41838
:1055C0008C42F9D37047036004308842FBD37047A4
:1055D0000C48854600F01EF90B480C490C4A002384
:1055E000FFF7EDFF0B480C490023FFF7EEFF0B48D8
:1055F0000B490023FFF7E9FF0AF06EFBFDF7D8FD2A
:10560000FEE7000000000320080000201802002030
:10561000D438010854020020B01A0020E40103200D
:10562000670A0320FEE780B485B000AF78604FF0D2
:10563000B043DA6C4FF0B0417B681343CB644FF05A
:10564000B043DA6C7B681340FB60FB6800BF143723
:10565000BD465DF8047B704780B588B000AF034657
:10566000FB7107F10C0300221A605A609A60DA603D
:105670001A610220FFF7D7FFFB79124A32F8133084
:10568000FB6001233B6100237B610223BB61FB794B
:105690000D4A52F8233007F10C021146184600F06B
:1056A000FBFEFB79084A52F82300FB79054A32F8E1
:1056B00013300022194601F077F800BF2037BD46AD
:1056C00080BD00BF703401082400002080B582B086
:1056D00000AF0346FB71FB79074A52F82300FB79C0
:1056E000064A32F813300122194601F05DF800BF76
:1056F0000837BD4680BD00BF24000020703401087B
:1057000080B582B000AF0346FB71FB79074A52F8BF
:105710002300FB79064A32F813300022194601F0C3
:1057200043F800BF0837BD4680BD00BF24000020FD
:105730007034010880B588B000AF03460A46FB719B
:105740001346BB7107F10C0300221A605A609A607D
:10575000DA601A61FB79002B03D10420FFF763FFA5
:105760000CE0FB79012B03D10820FFF75CFF05E07B
:10577000FB79022B02D10820FFF755FFBB79002BE4
:1057800017D1FB79204A32F81330FB6000233B61CC
:1057900001237B610223BB61FB791C4A52F8233051
:1057A00007F10C021146184600F076FE0120FCF7C6
:1057B00057F8BB79012B23D1FB79134A32F8133008
:1057C000FB6001237B614FF404133B61FB790F4ABB
:1057D00052F8233007F10C021146184600F05CFE27
:1057E000FB790B4AD35C5BB200220F21184600F014
:1057F00060FAFB79064AD35C5BB2184600F073FA94
:1058000000BF2037BD4680BD78340108300000203D
:105810008034010880B400AF264B00229A60254BEB
:10582000D3F88830234A43F47003C2F888304FF02D
:10583000B0431B684FF0B04243F0010313604FF0D8
:10584000B0434FF4E0229A604FF0B0431A684FF033
:10585000B041194B13400B604FF0B043D3F8943074
:105860004FF0B04223F00503C2F894304FF0B0433C
:10587000D3F898304FF0B04223F00103C2F89830CB
:105880004FF0B0430D4ADA604FF0B0430B4A1A6153
:105890004FF0B0431B684FF0B04223F480231360F5
:1058A0004FF0B04300229A6100BFBD465DF8047B13
:1058B000704700BF00ED00E0FBFEF6FA0010042286
:1058C00080B400AF054B5B68044A43F001035360AA
:1058D00000BFBD465DF8047B704700BF002004E0B8
:1058E00080B400AF054B5B68044A43F00203536089
:1058F00000BFBD465DF8047B704700BF002004E098
:1059000080B582B000AF0023FB710C4B1B680B4AC3
:1059100043F480731360032000F0C0F9002000F00E
:105920000FF80346002B02D00123FB7101E0FDF7C5
:10593000E5FFFB7918460837BD4680BD004000589A
:1059400080B584B000AF78600023FB73174B1B78E1
:10595000002B24D002F0F4FE0246144B1B781946AB
:105960004FF47A73B3FBF1F3B2FBF3F3184600F094
:10597000D6F90346002B0FD17B680F2B09D80022E4
:1059800079684FF0FF3000F094F9094A7B681360A2
:1059900007E00123FB7304E00123FB7301E0012313
:1059A000FB73FB7B18461037BD4680BD44000020CA
:1059B0004000002080B400AF064B1B781A46064B0F
:1059C0001B681344044A136000BFBD465DF8047BA6
:1059D000704700BF440000202C08002080B400AFB6
:1059E000034B1B681846BD465DF8047B704700BF3B
:1059F0002C08002080B400AF034B1B681846BD463E
:105A00005DF8047B704700BF4000002080B400AF09
:105A1000034B1B781846BD465DF8047B704700BFFA
:105A20004400002080B500AFFFF74AFF00BF80BDF3
:105A300080B500AFFFF754FF00BF80BD80B485B0D4
:105A400000AF78607B6803F00703FB600C4BDB68FA
:105A5000BB60BA684FF6FF031340BB60FB681A02D5
:105A6000BB68134343F0BF6343F40033BB60044A95
:105A7000BB68D36000BF1437BD465DF8047B704738
:105A800000ED00E080B400AF044BDB681B0A03F0BC
:105A900007031846BD465DF8047B704700ED00E043
:105AA00080B483B000AF0346FB7197F90730002B39
:105AB0000BDBFB7903F01F02074997F907305B09FD
:105AC000012000FA02F241F8232000BF0C37BD4646
:105AD0005DF8047B704700BF00E100E080B483B054
